{
  "_format": "hh-sol-artifact-1",
  "contractName": "MxiVerseNFT",
  "sourceName": "contracts/NFT.sol",
  "abi": [
    {
      "inputs": [
        {
          "internalType": "string",
          "name": "name",
          "type": "string"
        },
        {
          "internalType": "string",
          "name": "symbol",
          "type": "string"
        }
      ],
      "stateMutability": "nonpayable",
      "type": "constructor"
    },
    {
      "anonymous": false,
      "inputs": [
        {
          "indexed": true,
          "internalType": "address",
          "name": "owner",
          "type": "address"
        },
        {
          "indexed": true,
          "internalType": "address",
          "name": "approved",
          "type": "address"
        },
        {
          "indexed": true,
          "internalType": "uint256",
          "name": "tokenId",
          "type": "uint256"
        }
      ],
      "name": "Approval",
      "type": "event"
    },
    {
      "anonymous": false,
      "inputs": [
        {
          "indexed": true,
          "internalType": "address",
          "name": "owner",
          "type": "address"
        },
        {
          "indexed": true,
          "internalType": "address",
          "name": "operator",
          "type": "address"
        },
        {
          "indexed": false,
          "internalType": "bool",
          "name": "approved",
          "type": "bool"
        }
      ],
      "name": "ApprovalForAll",
      "type": "event"
    },
    {
      "anonymous": false,
      "inputs": [
        {
          "indexed": false,
          "internalType": "uint256",
          "name": "tokenId",
          "type": "uint256"
        },
        {
          "components": [
            {
              "internalType": "uint256",
              "name": "cryptoFaceIndex",
              "type": "uint256"
            },
            {
              "internalType": "string",
              "name": "name",
              "type": "string"
            },
            {
              "internalType": "string",
              "name": "description",
              "type": "string"
            },
            {
              "internalType": "string",
              "name": "imageURI",
              "type": "string"
            },
            {
              "internalType": "uint256",
              "name": "legendaryHypeLevel",
              "type": "uint256"
            },
            {
              "internalType": "uint256",
              "name": "hypeLevel",
              "type": "uint256"
            },
            {
              "internalType": "uint256",
              "name": "hypeValue",
              "type": "uint256"
            }
          ],
          "indexed": false,
          "internalType": "struct GameModel.ZverseItem",
          "name": "item",
          "type": "tuple"
        }
      ],
      "name": "InfoUpdated",
      "type": "event"
    },
    {
      "anonymous": false,
      "inputs": [
        {
          "indexed": true,
          "internalType": "address",
          "name": "from",
          "type": "address"
        },
        {
          "indexed": true,
          "internalType": "address",
          "name": "to",
          "type": "address"
        },
        {
          "indexed": true,
          "internalType": "uint256",
          "name": "tokenId",
          "type": "uint256"
        }
      ],
      "name": "Transfer",
      "type": "event"
    },
    {
      "inputs": [
        {
          "internalType": "address",
          "name": "to",
          "type": "address"
        },
        {
          "internalType": "uint256",
          "name": "tokenId",
          "type": "uint256"
        }
      ],
      "name": "approve",
      "outputs": [],
      "stateMutability": "nonpayable",
      "type": "function"
    },
    {
      "inputs": [
        {
          "internalType": "address",
          "name": "owner",
          "type": "address"
        }
      ],
      "name": "balanceOf",
      "outputs": [
        {
          "internalType": "uint256",
          "name": "",
          "type": "uint256"
        }
      ],
      "stateMutability": "view",
      "type": "function"
    },
    {
      "inputs": [
        {
          "internalType": "uint256",
          "name": "tokenId",
          "type": "uint256"
        }
      ],
      "name": "getApproved",
      "outputs": [
        {
          "internalType": "address",
          "name": "",
          "type": "address"
        }
      ],
      "stateMutability": "view",
      "type": "function"
    },
    {
      "inputs": [
        {
          "internalType": "uint256",
          "name": "id",
          "type": "uint256"
        }
      ],
      "name": "getById",
      "outputs": [
        {
          "components": [
            {
              "internalType": "uint256",
              "name": "cryptoFaceIndex",
              "type": "uint256"
            },
            {
              "internalType": "string",
              "name": "name",
              "type": "string"
            },
            {
              "internalType": "string",
              "name": "description",
              "type": "string"
            },
            {
              "internalType": "string",
              "name": "imageURI",
              "type": "string"
            },
            {
              "internalType": "uint256",
              "name": "legendaryHypeLevel",
              "type": "uint256"
            },
            {
              "internalType": "uint256",
              "name": "hypeLevel",
              "type": "uint256"
            },
            {
              "internalType": "uint256",
              "name": "hypeValue",
              "type": "uint256"
            }
          ],
          "internalType": "struct GameModel.ZverseItem",
          "name": "",
          "type": "tuple"
        }
      ],
      "stateMutability": "view",
      "type": "function"
    },
    {
      "inputs": [
        {
          "internalType": "address",
          "name": "_owner",
          "type": "address"
        }
      ],
      "name": "getOwnerNFTs",
      "outputs": [
        {
          "components": [
            {
              "internalType": "uint256",
              "name": "cryptoFaceIndex",
              "type": "uint256"
            },
            {
              "internalType": "string",
              "name": "name",
              "type": "string"
            },
            {
              "internalType": "string",
              "name": "description",
              "type": "string"
            },
            {
              "internalType": "string",
              "name": "imageURI",
              "type": "string"
            },
            {
              "internalType": "uint256",
              "name": "legendaryHypeLevel",
              "type": "uint256"
            },
            {
              "internalType": "uint256",
              "name": "hypeLevel",
              "type": "uint256"
            },
            {
              "internalType": "uint256",
              "name": "hypeValue",
              "type": "uint256"
            }
          ],
          "internalType": "struct GameModel.ZverseItem[]",
          "name": "",
          "type": "tuple[]"
        }
      ],
      "stateMutability": "view",
      "type": "function"
    },
    {
      "inputs": [],
      "name": "getTotalCollection",
      "outputs": [
        {
          "internalType": "uint256",
          "name": "",
          "type": "uint256"
        }
      ],
      "stateMutability": "view",
      "type": "function"
    },
    {
      "inputs": [
        {
          "internalType": "address",
          "name": "",
          "type": "address"
        }
      ],
      "name": "holders",
      "outputs": [
        {
          "internalType": "uint256",
          "name": "",
          "type": "uint256"
        }
      ],
      "stateMutability": "view",
      "type": "function"
    },
    {
      "inputs": [
        {
          "internalType": "address",
          "name": "owner",
          "type": "address"
        },
        {
          "internalType": "address",
          "name": "operator",
          "type": "address"
        }
      ],
      "name": "isApprovedForAll",
      "outputs": [
        {
          "internalType": "bool",
          "name": "",
          "type": "bool"
        }
      ],
      "stateMutability": "view",
      "type": "function"
    },
    {
      "inputs": [
        {
          "components": [
            {
              "internalType": "uint256",
              "name": "cryptoFaceIndex",
              "type": "uint256"
            },
            {
              "internalType": "string",
              "name": "name",
              "type": "string"
            },
            {
              "internalType": "string",
              "name": "description",
              "type": "string"
            },
            {
              "internalType": "string",
              "name": "imageURI",
              "type": "string"
            },
            {
              "internalType": "uint256",
              "name": "legendaryHypeLevel",
              "type": "uint256"
            },
            {
              "internalType": "uint256",
              "name": "hypeLevel",
              "type": "uint256"
            },
            {
              "internalType": "uint256",
              "name": "hypeValue",
              "type": "uint256"
            }
          ],
          "internalType": "struct GameModel.ZverseItem",
          "name": "item",
          "type": "tuple"
        }
      ],
      "name": "mintNFT",
      "outputs": [
        {
          "internalType": "uint256",
          "name": "",
          "type": "uint256"
        }
      ],
      "stateMutability": "nonpayable",
      "type": "function"
    },
    {
      "inputs": [],
      "name": "name",
      "outputs": [
        {
          "internalType": "string",
          "name": "",
          "type": "string"
        }
      ],
      "stateMutability": "view",
      "type": "function"
    },
    {
      "inputs": [
        {
          "internalType": "uint256",
          "name": "tokenId",
          "type": "uint256"
        }
      ],
      "name": "ownerOf",
      "outputs": [
        {
          "internalType": "address",
          "name": "",
          "type": "address"
        }
      ],
      "stateMutability": "view",
      "type": "function"
    },
    {
      "inputs": [
        {
          "internalType": "address",
          "name": "from",
          "type": "address"
        },
        {
          "internalType": "address",
          "name": "to",
          "type": "address"
        },
        {
          "internalType": "uint256",
          "name": "tokenId",
          "type": "uint256"
        }
      ],
      "name": "safeTransferFrom",
      "outputs": [],
      "stateMutability": "nonpayable",
      "type": "function"
    },
    {
      "inputs": [
        {
          "internalType": "address",
          "name": "from",
          "type": "address"
        },
        {
          "internalType": "address",
          "name": "to",
          "type": "address"
        },
        {
          "internalType": "uint256",
          "name": "tokenId",
          "type": "uint256"
        },
        {
          "internalType": "bytes",
          "name": "data",
          "type": "bytes"
        }
      ],
      "name": "safeTransferFrom",
      "outputs": [],
      "stateMutability": "nonpayable",
      "type": "function"
    },
    {
      "inputs": [
        {
          "internalType": "address",
          "name": "operator",
          "type": "address"
        },
        {
          "internalType": "bool",
          "name": "approved",
          "type": "bool"
        }
      ],
      "name": "setApprovalForAll",
      "outputs": [],
      "stateMutability": "nonpayable",
      "type": "function"
    },
    {
      "inputs": [
        {
          "internalType": "bytes4",
          "name": "interfaceId",
          "type": "bytes4"
        }
      ],
      "name": "supportsInterface",
      "outputs": [
        {
          "internalType": "bool",
          "name": "",
          "type": "bool"
        }
      ],
      "stateMutability": "view",
      "type": "function"
    },
    {
      "inputs": [],
      "name": "symbol",
      "outputs": [
        {
          "internalType": "string",
          "name": "",
          "type": "string"
        }
      ],
      "stateMutability": "view",
      "type": "function"
    },
    {
      "inputs": [
        {
          "internalType": "uint256",
          "name": "tokenId",
          "type": "uint256"
        }
      ],
      "name": "tokenURI",
      "outputs": [
        {
          "internalType": "string",
          "name": "",
          "type": "string"
        }
      ],
      "stateMutability": "view",
      "type": "function"
    },
    {
      "inputs": [
        {
          "internalType": "address",
          "name": "from",
          "type": "address"
        },
        {
          "internalType": "address",
          "name": "to",
          "type": "address"
        },
        {
          "internalType": "uint256",
          "name": "tokenId",
          "type": "uint256"
        }
      ],
      "name": "transferFrom",
      "outputs": [],
      "stateMutability": "nonpayable",
      "type": "function"
    },
    {
      "inputs": [
        {
          "internalType": "uint256",
          "name": "tokenId",
          "type": "uint256"
        },
        {
          "internalType": "string",
          "name": "zvereName",
          "type": "string"
        },
        {
          "internalType": "string",
          "name": "zverseDescription",
          "type": "string"
        }
      ],
      "name": "updateInfo",
      "outputs": [],
      "stateMutability": "payable",
      "type": "function"
    },
    {
      "inputs": [
        {
          "internalType": "uint256",
          "name": "",
          "type": "uint256"
        }
      ],
      "name": "zverseItemNFTs",
      "outputs": [
        {
          "internalType": "uint256",
          "name": "cryptoFaceIndex",
          "type": "uint256"
        },
        {
          "internalType": "string",
          "name": "name",
          "type": "string"
        },
        {
          "internalType": "string",
          "name": "description",
          "type": "string"
        },
        {
          "internalType": "string",
          "name": "imageURI",
          "type": "string"
        },
        {
          "internalType": "uint256",
          "name": "legendaryHypeLevel",
          "type": "uint256"
        },
        {
          "internalType": "uint256",
          "name": "hypeLevel",
          "type": "uint256"
        },
        {
          "internalType": "uint256",
          "name": "hypeValue",
          "type": "uint256"
        }
      ],
      "stateMutability": "view",
      "type": "function"
    }
  ],
  "bytecode": "0x60806040523480156200001157600080fd5b506040516200410c3803806200410c8339818101604052810190620000379190620002ae565b81818160009080519060200190620000519291906200018c565b5080600190805190602001906200006a9291906200018c565b505050620000b86040518060400160405280600f81526020017f4e465420696e697469616c697a65640000000000000000000000000000000000815250620000c060201b620016701760201c565b505062000512565b6200016081604051602401620000d7919062000362565b6040516020818303038152906040527f41304fac000000000000000000000000000000000000000000000000000000007bffffffffffffffffffffffffffffffffffffffffffffffffffffffff19166020820180517bffffffffffffffffffffffffffffffffffffffffffffffffffffffff83818316178352505050506200016360201b60201c565b50565b60008151905060006a636f6e736f6c652e6c6f679050602083016000808483855afa5050505050565b8280546200019a9062000437565b90600052602060002090601f016020900481019282620001be57600085556200020a565b82601f10620001d957805160ff19168380011785556200020a565b828001600101855582156200020a579182015b8281111562000209578251825591602001919060010190620001ec565b5b5090506200021991906200021d565b5090565b5b80821115620002385760008160009055506001016200021e565b5090565b6000620002536200024d84620003af565b62000386565b9050828152602081018484840111156200026c57600080fd5b6200027984828562000401565b509392505050565b600082601f8301126200029357600080fd5b8151620002a58482602086016200023c565b91505092915050565b60008060408385031215620002c257600080fd5b600083015167ffffffffffffffff811115620002dd57600080fd5b620002eb8582860162000281565b925050602083015167ffffffffffffffff8111156200030957600080fd5b620003178582860162000281565b9150509250929050565b60006200032e82620003e5565b6200033a8185620003f0565b93506200034c81856020860162000401565b620003578162000501565b840191505092915050565b600060208201905081810360008301526200037e818462000321565b905092915050565b600062000392620003a5565b9050620003a082826200046d565b919050565b6000604051905090565b600067ffffffffffffffff821115620003cd57620003cc620004d2565b5b620003d88262000501565b9050602081019050919050565b600081519050919050565b600082825260208201905092915050565b60005b838110156200042157808201518184015260208101905062000404565b8381111562000431576000848401525b50505050565b600060028204905060018216806200045057607f821691505b60208210811415620004675762000466620004a3565b5b50919050565b620004788262000501565b810181811067ffffffffffffffff821117156200049a5762000499620004d2565b5b80604052505050565b7f4e487b7100000000000000000000000000000000000000000000000000000000600052602260045260246000fd5b7f4e487b7100000000000000000000000000000000000000000000000000000000600052604160045260246000fd5b6000601f19601f8301169050919050565b613bea80620005226000396000f3fe60806040526004361061011f5760003560e01c80638c017572116100a0578063bf5e461a11610064578063bf5e461a146103fc578063c87b56dd14610439578063d398337814610476578063e985e9c5146104b9578063f4f4d237146104f65761011f565b80638c0175721461032657806395d89b4114610363578063a22cb4651461038e578063a9c585e4146103b7578063b88d4fde146103d35761011f565b806323b872dd116100e757806323b872dd1461022f57806342842e0e14610258578063459dcbc3146102815780636352211e146102ac57806370a08231146102e95761011f565b806301ffc9a71461012457806306fdde0314610161578063081812fc1461018c578063095ea7b3146101c957806318a5bbdc146101f2575b600080fd5b34801561013057600080fd5b5061014b60048036038101906101469190612997565b610533565b604051610158919061314a565b60405180910390f35b34801561016d57600080fd5b50610176610615565b6040516101839190613165565b60405180910390f35b34801561019857600080fd5b506101b360048036038101906101ae9190612a2a565b6106a7565b6040516101c091906130c1565b60405180910390f35b3480156101d557600080fd5b506101f060048036038101906101eb919061295b565b6106ed565b005b3480156101fe57600080fd5b50610219600480360381019061021491906127f0565b610805565b6040516102269190613347565b60405180910390f35b34801561023b57600080fd5b5061025660048036038101906102519190612855565b61081d565b005b34801561026457600080fd5b5061027f600480360381019061027a9190612855565b61087d565b005b34801561028d57600080fd5b5061029661089d565b6040516102a39190613347565b60405180910390f35b3480156102b857600080fd5b506102d360048036038101906102ce9190612a2a565b6108ae565b6040516102e091906130c1565b60405180910390f35b3480156102f557600080fd5b50610310600480360381019061030b91906127f0565b610960565b60405161031d9190613347565b60405180910390f35b34801561033257600080fd5b5061034d600480360381019061034891906127f0565b610a18565b60405161035a9190613128565b60405180910390f35b34801561036f57600080fd5b50610378610d5e565b6040516103859190613165565b60405180910390f35b34801561039a57600080fd5b506103b560048036038101906103b0919061291f565b610df0565b005b6103d160048036038101906103cc9190612a53565b610e06565b005b3480156103df57600080fd5b506103fa60048036038101906103f591906128a4565b610eec565b005b34801561040857600080fd5b50610423600480360381019061041e91906129e9565b610f4e565b6040516104309190613347565b60405180910390f35b34801561044557600080fd5b50610460600480360381019061045b9190612a2a565b6110e4565b60405161046d9190613165565b60405180910390f35b34801561048257600080fd5b5061049d60048036038101906104989190612a2a565b6111f7565b6040516104b09796959493929190613362565b60405180910390f35b3480156104c557600080fd5b506104e060048036038101906104db9190612819565b6113d1565b6040516104ed919061314a565b60405180910390f35b34801561050257600080fd5b5061051d60048036038101906105189190612a2a565b611465565b60405161052a9190613325565b60405180910390f35b60007f80ac58cd000000000000000000000000000000000000000000000000000000007bffffffffffffffffffffffffffffffffffffffffffffffffffffffff1916827bffffffffffffffffffffffffffffffffffffffffffffffffffffffff191614806105fe57507f5b5e139f000000000000000000000000000000000000000000000000000000007bffffffffffffffffffffffffffffffffffffffffffffffffffffffff1916827bffffffffffffffffffffffffffffffffffffffffffffffffffffffff1916145b8061060e575061060d82611709565b5b9050919050565b606060008054610624906136ba565b80601f0160208091040260200160405190810160405280929190818152602001828054610650906136ba565b801561069d5780601f106106725761010080835404028352916020019161069d565b820191906000526020600020905b81548152906001019060200180831161068057829003601f168201915b5050505050905090565b60006106b282611773565b6004600083815260200190815260200160002060009054906101000a900473ffffffffffffffffffffffffffffffffffffffff169050919050565b60006106f8826108ae565b90508073ffffffffffffffffffffffffffffffffffffffff168373ffffffffffffffffffffffffffffffffffffffff161415610769576040517f08c379a0000000000000000000000000000000000000000000000000000000008152600401610760906132e5565b60405180910390fd5b8073ffffffffffffffffffffffffffffffffffffffff166107886117be565b73ffffffffffffffffffffffffffffffffffffffff1614806107b757506107b6816107b16117be565b6113d1565b5b6107f6576040517f08c379a00000000000000000000000000000000000000000000000000000000081526004016107ed90613285565b60405180910390fd5b61080083836117c6565b505050565b60076020528060005260406000206000915090505481565b61082e6108286117be565b8261187f565b61086d576040517f08c379a000000000000000000000000000000000000000000000000000000000815260040161086490613305565b60405180910390fd5b610878838383611914565b505050565b61089883838360405180602001604052806000815250610eec565b505050565b60006108a96009611b7b565b905090565b6000806002600084815260200190815260200160002060009054906101000a900473ffffffffffffffffffffffffffffffffffffffff169050600073ffffffffffffffffffffffffffffffffffffffff168173ffffffffffffffffffffffffffffffffffffffff161415610957576040517f08c379a000000000000000000000000000000000000000000000000000000000815260040161094e906132c5565b60405180910390fd5b80915050919050565b60008073ffffffffffffffffffffffffffffffffffffffff168273ffffffffffffffffffffffffffffffffffffffff1614156109d1576040517f08c379a00000000000000000000000000000000000000000000000000000000081526004016109c890613265565b60405180910390fd5b600360008373ffffffffffffffffffffffffffffffffffffffff1673ffffffffffffffffffffffffffffffffffffffff168152602001908152602001600020549050919050565b60606000610a2583610960565b67ffffffffffffffff811115610a64577f4e487b7100000000000000000000000000000000000000000000000000000000600052604160045260246000fd5b604051908082528060200260200182016040528015610a9d57816020015b610a8a6124df565b815260200190600190039081610a825790505b5090506000805b610aae6009611b7b565b811015610d53578473ffffffffffffffffffffffffffffffffffffffff16610ad5826108ae565b73ffffffffffffffffffffffffffffffffffffffff161415610d4057600860008281526020019081526020016000206040518060e001604052908160008201548152602001600182018054610b29906136ba565b80601f0160208091040260200160405190810160405280929190818152602001828054610b55906136ba565b8015610ba25780601f10610b7757610100808354040283529160200191610ba2565b820191906000526020600020905b815481529060010190602001808311610b8557829003601f168201915b50505050508152602001600282018054610bbb906136ba565b80601f0160208091040260200160405190810160405280929190818152602001828054610be7906136ba565b8015610c345780601f10610c0957610100808354040283529160200191610c34565b820191906000526020600020905b815481529060010190602001808311610c1757829003601f168201915b50505050508152602001600382018054610c4d906136ba565b80601f0160208091040260200160405190810160405280929190818152602001828054610c79906136ba565b8015610cc65780601f10610c9b57610100808354040283529160200191610cc6565b820191906000526020600020905b815481529060010190602001808311610ca957829003601f168201915b505050505081526020016004820154815260200160058201548152602001600682015481525050838381518110610d26577f4e487b7100000000000000000000000000000000000000000000000000000000600052603260045260246000fd5b60200260200101819052508180610d3c90613737565b9250505b8080610d4b90613737565b915050610aa4565b508192505050919050565b606060018054610d6d906136ba565b80601f0160208091040260200160405190810160405280929190818152602001828054610d99906136ba565b8015610de65780601f10610dbb57610100808354040283529160200191610de6565b820191906000526020600020905b815481529060010190602001808311610dc957829003601f168201915b5050505050905090565b610e02610dfb6117be565b8383611b89565b5050565b3373ffffffffffffffffffffffffffffffffffffffff16610e26846108ae565b73ffffffffffffffffffffffffffffffffffffffff1614610e4657600080fd5b600082511415610e5557600080fd5b600081511415610e6457600080fd5b600060086000858152602001908152602001600020905082816001019080519060200190610e9392919061251c565b5081816002019080519060200190610eac92919061251c565b507fb802583687bdb479fcb98b352e350c20c83b4b6592a18d2abd9d1b1478c12b368482604051610ede9291906133e6565b60405180910390a150505050565b610efd610ef76117be565b8361187f565b610f3c576040517f08c379a0000000000000000000000000000000000000000000000000000000008152600401610f3390613305565b60405180910390fd5b610f4884848484611cf6565b50505050565b6000803290506000610f606009611b7b565b90506040518060e00160405280828152602001856020015181526020018560400151815260200185606001518152602001856080015181526020018560a0015181526020018560c0015181525060086000838152602001908152602001600020600082015181600001556020820151816001019080519060200190610fe692919061251c565b50604082015181600201908051906020019061100392919061251c565b50606082015181600301908051906020019061102092919061251c565b506080820151816004015560a0820151816005015560c0820151816006015590505061104c8282611d52565b80600760008473ffffffffffffffffffffffffffffffffffffffff1673ffffffffffffffffffffffffffffffffffffffff1681526020019081526020016000208190555061109a6009611d70565b6110da6040518060400160405280601d81526020017f4e4654206d696e7465642062792025732c20746f6b656e49643a2025730000008152508383611d86565b8092505050919050565b60606110ef82611773565b600060066000848152602001908152602001600020805461110f906136ba565b80601f016020809104026020016040519081016040528092919081815260200182805461113b906136ba565b80156111885780601f1061115d57610100808354040283529160200191611188565b820191906000526020600020905b81548152906001019060200180831161116b57829003601f168201915b505050505090506000611199611e25565b90506000815114156111af5781925050506111f2565b6000825111156111e45780826040516020016111cc92919061309d565b604051602081830303815290604052925050506111f2565b6111ed84611e3c565b925050505b919050565b6008602052806000526040600020600091509050806000015490806001018054611220906136ba565b80601f016020809104026020016040519081016040528092919081815260200182805461124c906136ba565b80156112995780601f1061126e57610100808354040283529160200191611299565b820191906000526020600020905b81548152906001019060200180831161127c57829003601f168201915b5050505050908060020180546112ae906136ba565b80601f01602080910402602001604051908101604052809291908181526020018280546112da906136ba565b80156113275780601f106112fc57610100808354040283529160200191611327565b820191906000526020600020905b81548152906001019060200180831161130a57829003601f168201915b50505050509080600301805461133c906136ba565b80601f0160208091040260200160405190810160405280929190818152602001828054611368906136ba565b80156113b55780601f1061138a576101008083540402835291602001916113b5565b820191906000526020600020905b81548152906001019060200180831161139857829003601f168201915b5050505050908060040154908060050154908060060154905087565b6000600560008473ffffffffffffffffffffffffffffffffffffffff1673ffffffffffffffffffffffffffffffffffffffff16815260200190815260200160002060008373ffffffffffffffffffffffffffffffffffffffff1673ffffffffffffffffffffffffffffffffffffffff16815260200190815260200160002060009054906101000a900460ff16905092915050565b61146d6124df565b600860008381526020019081526020016000206040518060e0016040529081600082015481526020016001820180546114a5906136ba565b80601f01602080910402602001604051908101604052809291908181526020018280546114d1906136ba565b801561151e5780601f106114f35761010080835404028352916020019161151e565b820191906000526020600020905b81548152906001019060200180831161150157829003601f168201915b50505050508152602001600282018054611537906136ba565b80601f0160208091040260200160405190810160405280929190818152602001828054611563906136ba565b80156115b05780601f10611585576101008083540402835291602001916115b0565b820191906000526020600020905b81548152906001019060200180831161159357829003601f168201915b505050505081526020016003820180546115c9906136ba565b80601f01602080910402602001604051908101604052809291908181526020018280546115f5906136ba565b80156116425780601f1061161757610100808354040283529160200191611642565b820191906000526020600020905b81548152906001019060200180831161162557829003601f168201915b5050505050815260200160048201548152602001600582015481526020016006820154815250509050919050565b611706816040516024016116849190613165565b6040516020818303038152906040527f41304fac000000000000000000000000000000000000000000000000000000007bffffffffffffffffffffffffffffffffffffffffffffffffffffffff19166020820180517bffffffffffffffffffffffffffffffffffffffffffffffffffffffff8381831617835250505050611ea4565b50565b60007f01ffc9a7000000000000000000000000000000000000000000000000000000007bffffffffffffffffffffffffffffffffffffffffffffffffffffffff1916827bffffffffffffffffffffffffffffffffffffffffffffffffffffffff1916149050919050565b61177c81611ecd565b6117bb576040517f08c379a00000000000000000000000000000000000000000000000000000000081526004016117b2906132c5565b60405180910390fd5b50565b600033905090565b816004600083815260200190815260200160002060006101000a81548173ffffffffffffffffffffffffffffffffffffffff021916908373ffffffffffffffffffffffffffffffffffffffff160217905550808273ffffffffffffffffffffffffffffffffffffffff16611839836108ae565b73ffffffffffffffffffffffffffffffffffffffff167f8c5be1e5ebec7d5bd14f71427d1e84f3dd0314c0f7b2291e5b200ac8c7c3b92560405160405180910390a45050565b60008061188b836108ae565b90508073ffffffffffffffffffffffffffffffffffffffff168473ffffffffffffffffffffffffffffffffffffffff1614806118cd57506118cc81856113d1565b5b8061190b57508373ffffffffffffffffffffffffffffffffffffffff166118f3846106a7565b73ffffffffffffffffffffffffffffffffffffffff16145b91505092915050565b8273ffffffffffffffffffffffffffffffffffffffff16611934826108ae565b73ffffffffffffffffffffffffffffffffffffffff161461198a576040517f08c379a0000000000000000000000000000000000000000000000000000000008152600401611981906131e5565b60405180910390fd5b600073ffffffffffffffffffffffffffffffffffffffff168273ffffffffffffffffffffffffffffffffffffffff1614156119fa576040517f08c379a00000000000000000000000000000000000000000000000000000000081526004016119f190613225565b60405180910390fd5b611a05838383611f39565b611a106000826117c6565b6001600360008573ffffffffffffffffffffffffffffffffffffffff1673ffffffffffffffffffffffffffffffffffffffff1681526020019081526020016000206000828254611a6091906135c6565b925050819055506001600360008473ffffffffffffffffffffffffffffffffffffffff1673ffffffffffffffffffffffffffffffffffffffff1681526020019081526020016000206000828254611ab7919061353f565b92505081905550816002600083815260200190815260200160002060006101000a81548173ffffffffffffffffffffffffffffffffffffffff021916908373ffffffffffffffffffffffffffffffffffffffff160217905550808273ffffffffffffffffffffffffffffffffffffffff168473ffffffffffffffffffffffffffffffffffffffff167fddf252ad1be2c89b69c2b068fc378daa952ba7f163c4a11628f55a4df523b3ef60405160405180910390a4611b76838383611f3e565b505050565b600081600001549050919050565b8173ffffffffffffffffffffffffffffffffffffffff168373ffffffffffffffffffffffffffffffffffffffff161415611bf8576040517f08c379a0000000000000000000000000000000000000000000000000000000008152600401611bef90613245565b60405180910390fd5b80600560008573ffffffffffffffffffffffffffffffffffffffff1673ffffffffffffffffffffffffffffffffffffffff16815260200190815260200160002060008473ffffffffffffffffffffffffffffffffffffffff1673ffffffffffffffffffffffffffffffffffffffff16815260200190815260200160002060006101000a81548160ff0219169083151502179055508173ffffffffffffffffffffffffffffffffffffffff168373ffffffffffffffffffffffffffffffffffffffff167f17307eab39ab6107e8899845ad3d59bd9653f200f220920489ca2b5937696c3183604051611ce9919061314a565b60405180910390a3505050565b611d01848484611914565b611d0d84848484611f43565b611d4c576040517f08c379a0000000000000000000000000000000000000000000000000000000008152600401611d43906131c5565b60405180910390fd5b50505050565b611d6c8282604051806020016040528060008152506120da565b5050565b6001816000016000828254019250508190555050565b611e20838383604051602401611d9e93929190613187565b6040516020818303038152906040527f07c81217000000000000000000000000000000000000000000000000000000007bffffffffffffffffffffffffffffffffffffffffffffffffffffffff19166020820180517bffffffffffffffffffffffffffffffffffffffffffffffffffffffff8381831617835250505050611ea4565b505050565b606060405180602001604052806000815250905090565b6060611e4782611773565b6000611e51611e25565b90506000815111611e715760405180602001604052806000815250611e9c565b80611e7b84612135565b604051602001611e8c92919061309d565b6040516020818303038152906040525b915050919050565b60008151905060006a636f6e736f6c652e6c6f679050602083016000808483855afa5050505050565b60008073ffffffffffffffffffffffffffffffffffffffff166002600084815260200190815260200160002060009054906101000a900473ffffffffffffffffffffffffffffffffffffffff1673ffffffffffffffffffffffffffffffffffffffff1614159050919050565b505050565b505050565b6000611f648473ffffffffffffffffffffffffffffffffffffffff166122e2565b156120cd578373ffffffffffffffffffffffffffffffffffffffff1663150b7a02611f8d6117be565b8786866040518563ffffffff1660e01b8152600401611faf94939291906130dc565b602060405180830381600087803b158015611fc957600080fd5b505af1925050508015611ffa57506040513d601f19601f82011682018060405250810190611ff791906129c0565b60015b61207d573d806000811461202a576040519150601f19603f3d011682016040523d82523d6000602084013e61202f565b606091505b50600081511415612075576040517f08c379a000000000000000000000000000000000000000000000000000000000815260040161206c906131c5565b60405180910390fd5b805181602001fd5b63150b7a0260e01b7bffffffffffffffffffffffffffffffffffffffffffffffffffffffff1916817bffffffffffffffffffffffffffffffffffffffffffffffffffffffff1916149150506120d2565b600190505b949350505050565b6120e48383612305565b6120f16000848484611f43565b612130576040517f08c379a0000000000000000000000000000000000000000000000000000000008152600401612127906131c5565b60405180910390fd5b505050565b6060600082141561217d576040518060400160405280600181526020017f300000000000000000000000000000000000000000000000000000000000000081525090506122dd565b600082905060005b600082146121af57808061219890613737565b915050600a826121a89190613595565b9150612185565b60008167ffffffffffffffff8111156121f1577f4e487b7100000000000000000000000000000000000000000000000000000000600052604160045260246000fd5b6040519080825280601f01601f1916602001820160405280156122235781602001600182028036833780820191505090505b5090505b600085146122d65760018261223c91906135c6565b9150600a8561224b9190613780565b6030612257919061353f565b60f81b818381518110612293577f4e487b7100000000000000000000000000000000000000000000000000000000600052603260045260246000fd5b60200101907effffffffffffffffffffffffffffffffffffffffffffffffffffffffffffff1916908160001a905350600a856122cf9190613595565b9450612227565b8093505050505b919050565b6000808273ffffffffffffffffffffffffffffffffffffffff163b119050919050565b600073ffffffffffffffffffffffffffffffffffffffff168273ffffffffffffffffffffffffffffffffffffffff161415612375576040517f08c379a000000000000000000000000000000000000000000000000000000000815260040161236c906132a5565b60405180910390fd5b61237e81611ecd565b156123be576040517f08c379a00000000000000000000000000000000000000000000000000000000081526004016123b590613205565b60405180910390fd5b6123ca60008383611f39565b6001600360008473ffffffffffffffffffffffffffffffffffffffff1673ffffffffffffffffffffffffffffffffffffffff168152602001908152602001600020600082825461241a919061353f565b92505081905550816002600083815260200190815260200160002060006101000a81548173ffffffffffffffffffffffffffffffffffffffff021916908373ffffffffffffffffffffffffffffffffffffffff160217905550808273ffffffffffffffffffffffffffffffffffffffff16600073ffffffffffffffffffffffffffffffffffffffff167fddf252ad1be2c89b69c2b068fc378daa952ba7f163c4a11628f55a4df523b3ef60405160405180910390a46124db60008383611f3e565b5050565b6040518060e00160405280600081526020016060815260200160608152602001606081526020016000815260200160008152602001600081525090565b828054612528906136ba565b90600052602060002090601f01602090048101928261254a5760008555612591565b82601f1061256357805160ff1916838001178555612591565b82800160010185558215612591579182015b82811115612590578251825591602001919060010190612575565b5b50905061259e91906125a2565b5090565b5b808211156125bb5760008160009055506001016125a3565b5090565b60006125d26125cd8461343b565b613416565b9050828152602081018484840111156125ea57600080fd5b6125f5848285613678565b509392505050565b600061261061260b8461346c565b613416565b90508281526020810184848401111561262857600080fd5b612633848285613678565b509392505050565b60008135905061264a81613b58565b92915050565b60008135905061265f81613b6f565b92915050565b60008135905061267481613b86565b92915050565b60008151905061268981613b86565b92915050565b600082601f8301126126a057600080fd5b81356126b08482602086016125bf565b91505092915050565b600082601f8301126126ca57600080fd5b81356126da8482602086016125fd565b91505092915050565b600060e082840312156126f557600080fd5b6126ff60e0613416565b9050600061270f848285016127db565b600083015250602082013567ffffffffffffffff81111561272f57600080fd5b61273b848285016126b9565b602083015250604082013567ffffffffffffffff81111561275b57600080fd5b612767848285016126b9565b604083015250606082013567ffffffffffffffff81111561278757600080fd5b612793848285016126b9565b60608301525060806127a7848285016127db565b60808301525060a06127bb848285016127db565b60a08301525060c06127cf848285016127db565b60c08301525092915050565b6000813590506127ea81613b9d565b92915050565b60006020828403121561280257600080fd5b60006128108482850161263b565b91505092915050565b6000806040838503121561282c57600080fd5b600061283a8582860161263b565b925050602061284b8582860161263b565b9150509250929050565b60008060006060848603121561286a57600080fd5b60006128788682870161263b565b93505060206128898682870161263b565b925050604061289a868287016127db565b9150509250925092565b600080600080608085870312156128ba57600080fd5b60006128c88782880161263b565b94505060206128d98782880161263b565b93505060406128ea878288016127db565b925050606085013567ffffffffffffffff81111561290757600080fd5b6129138782880161268f565b91505092959194509250565b6000806040838503121561293257600080fd5b60006129408582860161263b565b925050602061295185828601612650565b9150509250929050565b6000806040838503121561296e57600080fd5b600061297c8582860161263b565b925050602061298d858286016127db565b9150509250929050565b6000602082840312156129a957600080fd5b60006129b784828501612665565b91505092915050565b6000602082840312156129d257600080fd5b60006129e08482850161267a565b91505092915050565b6000602082840312156129fb57600080fd5b600082013567ffffffffffffffff811115612a1557600080fd5b612a21848285016126e3565b91505092915050565b600060208284031215612a3c57600080fd5b6000612a4a848285016127db565b91505092915050565b600080600060608486031215612a6857600080fd5b6000612a76868287016127db565b935050602084013567ffffffffffffffff811115612a9357600080fd5b612a9f868287016126b9565b925050604084013567ffffffffffffffff811115612abc57600080fd5b612ac8868287016126b9565b9150509250925092565b6000612ade8383612e56565b905092915050565b612aef81613604565b82525050565b6000612b00826134c2565b612b0a81856134f0565b935083602082028501612b1c8561349d565b8060005b85811015612b585784840389528151612b398582612ad2565b9450612b44836134e3565b925060208a01995050600181019050612b20565b50829750879550505050505092915050565b612b7381613616565b82525050565b6000612b84826134cd565b612b8e8185613501565b9350612b9e818560208601613687565b612ba78161386d565b840191505092915050565b6000612bbd826134d8565b612bc78185613512565b9350612bd7818560208601613687565b612be08161386d565b840191505092915050565b6000612bf6826134d8565b612c008185613523565b9350612c10818560208601613687565b612c198161386d565b840191505092915050565b6000612c2f826134d8565b612c398185613534565b9350612c49818560208601613687565b80840191505092915050565b60008154612c62816136ba565b612c6c8186613512565b94506001821660008114612c875760018114612c9957612ccc565b60ff1983168652602086019350612ccc565b612ca2856134ad565b60005b83811015612cc457815481890152600182019150602081019050612ca5565b808801955050505b50505092915050565b6000612ce2603283613523565b9150612ced8261388b565b604082019050919050565b6000612d05602583613523565b9150612d10826138da565b604082019050919050565b6000612d28601c83613523565b9150612d3382613929565b602082019050919050565b6000612d4b602483613523565b9150612d5682613952565b604082019050919050565b6000612d6e601983613523565b9150612d79826139a1565b602082019050919050565b6000612d91602983613523565b9150612d9c826139ca565b604082019050919050565b6000612db4603e83613523565b9150612dbf82613a19565b604082019050919050565b6000612dd7602083613523565b9150612de282613a68565b602082019050919050565b6000612dfa601883613523565b9150612e0582613a91565b602082019050919050565b6000612e1d602183613523565b9150612e2882613aba565b604082019050919050565b6000612e40602e83613523565b9150612e4b82613b09565b604082019050919050565b600060e083016000830151612e6e600086018261307f565b5060208301518482036020860152612e868282612bb2565b91505060408301518482036040860152612ea08282612bb2565b91505060608301518482036060860152612eba8282612bb2565b9150506080830151612ecf608086018261307f565b5060a0830151612ee260a086018261307f565b5060c0830151612ef560c086018261307f565b508091505092915050565b600060e083016000830151612f18600086018261307f565b5060208301518482036020860152612f308282612bb2565b91505060408301518482036040860152612f4a8282612bb2565b91505060608301518482036060860152612f648282612bb2565b9150506080830151612f79608086018261307f565b5060a0830151612f8c60a086018261307f565b5060c0830151612f9f60c086018261307f565b508091505092915050565b600060e083016000808401549050612fc1816136ec565b612fce600087018261307f565b50600184018583036020870152612fe58382612c55565b925050600284018583036040870152612ffe8382612c55565b9250506003840185830360608701526130178382612c55565b9250506004840154905061302a816136ec565b613037608087018261307f565b5060058401549050613048816136ec565b61305560a087018261307f565b5060068401549050613066816136ec565b61307360c087018261307f565b50819250505092915050565b6130888161366e565b82525050565b6130978161366e565b82525050565b60006130a98285612c24565b91506130b58284612c24565b91508190509392505050565b60006020820190506130d66000830184612ae6565b92915050565b60006080820190506130f16000830187612ae6565b6130fe6020830186612ae6565b61310b604083018561308e565b818103606083015261311d8184612b79565b905095945050505050565b600060208201905081810360008301526131428184612af5565b905092915050565b600060208201905061315f6000830184612b6a565b92915050565b6000602082019050818103600083015261317f8184612beb565b905092915050565b600060608201905081810360008301526131a18186612beb565b90506131b06020830185612ae6565b6131bd604083018461308e565b949350505050565b600060208201905081810360008301526131de81612cd5565b9050919050565b600060208201905081810360008301526131fe81612cf8565b9050919050565b6000602082019050818103600083015261321e81612d1b565b9050919050565b6000602082019050818103600083015261323e81612d3e565b9050919050565b6000602082019050818103600083015261325e81612d61565b9050919050565b6000602082019050818103600083015261327e81612d84565b9050919050565b6000602082019050818103600083015261329e81612da7565b9050919050565b600060208201905081810360008301526132be81612dca565b9050919050565b600060208201905081810360008301526132de81612ded565b9050919050565b600060208201905081810360008301526132fe81612e10565b9050919050565b6000602082019050818103600083015261331e81612e33565b9050919050565b6000602082019050818103600083015261333f8184612f00565b905092915050565b600060208201905061335c600083018461308e565b92915050565b600060e082019050613377600083018a61308e565b81810360208301526133898189612beb565b9050818103604083015261339d8188612beb565b905081810360608301526133b18187612beb565b90506133c0608083018661308e565b6133cd60a083018561308e565b6133da60c083018461308e565b98975050505050505050565b60006040820190506133fb600083018561308e565b818103602083015261340d8184612faa565b90509392505050565b6000613420613431565b905061342c8282613706565b919050565b6000604051905090565b600067ffffffffffffffff8211156134565761345561383e565b5b61345f8261386d565b9050602081019050919050565b600067ffffffffffffffff8211156134875761348661383e565b5b6134908261386d565b9050602081019050919050565b6000819050602082019050919050565b60008190508160005260206000209050919050565b600081519050919050565b600081519050919050565b600081519050919050565b6000602082019050919050565b600082825260208201905092915050565b600082825260208201905092915050565b600082825260208201905092915050565b600082825260208201905092915050565b600081905092915050565b600061354a8261366e565b91506135558361366e565b9250827fffffffffffffffffffffffffffffffffffffffffffffffffffffffffffffffff0382111561358a576135896137b1565b5b828201905092915050565b60006135a08261366e565b91506135ab8361366e565b9250826135bb576135ba6137e0565b5b828204905092915050565b60006135d18261366e565b91506135dc8361366e565b9250828210156135ef576135ee6137b1565b5b828203905092915050565b6000819050919050565b600061360f8261364e565b9050919050565b60008115159050919050565b60007fffffffff0000000000000000000000000000000000000000000000000000000082169050919050565b600073ffffffffffffffffffffffffffffffffffffffff82169050919050565b6000819050919050565b82818337600083830152505050565b60005b838110156136a557808201518184015260208101905061368a565b838111156136b4576000848401525b50505050565b600060028204905060018216806136d257607f821691505b602082108114156136e6576136e561380f565b5b50919050565b60006136ff6136fa8361387e565b6135fa565b9050919050565b61370f8261386d565b810181811067ffffffffffffffff8211171561372e5761372d61383e565b5b80604052505050565b60006137428261366e565b91507fffffffffffffffffffffffffffffffffffffffffffffffffffffffffffffffff821415613775576137746137b1565b5b600182019050919050565b600061378b8261366e565b91506137968361366e565b9250826137a6576137a56137e0565b5b828206905092915050565b7f4e487b7100000000000000000000000000000000000000000000000000000000600052601160045260246000fd5b7f4e487b7100000000000000000000000000000000000000000000000000000000600052601260045260246000fd5b7f4e487b7100000000000000000000000000000000000000000000000000000000600052602260045260246000fd5b7f4e487b7100000000000000000000000000000000000000000000000000000000600052604160045260246000fd5b6000601f19601f8301169050919050565b60008160001c9050919050565b7f4552433732313a207472616e7366657220746f206e6f6e20455243373231526560008201527f63656976657220696d706c656d656e7465720000000000000000000000000000602082015250565b7f4552433732313a207472616e736665722066726f6d20696e636f72726563742060008201527f6f776e6572000000000000000000000000000000000000000000000000000000602082015250565b7f4552433732313a20746f6b656e20616c7265616479206d696e74656400000000600082015250565b7f4552433732313a207472616e7366657220746f20746865207a65726f2061646460008201527f7265737300000000000000000000000000000000000000000000000000000000602082015250565b7f4552433732313a20617070726f766520746f2063616c6c657200000000000000600082015250565b7f4552433732313a2061646472657373207a65726f206973206e6f74206120766160008201527f6c6964206f776e65720000000000000000000000000000000000000000000000602082015250565b7f4552433732313a20617070726f76652063616c6c6572206973206e6f7420746f60008201527f6b656e206f776e6572206e6f7220617070726f76656420666f7220616c6c0000602082015250565b7f4552433732313a206d696e7420746f20746865207a65726f2061646472657373600082015250565b7f4552433732313a20696e76616c696420746f6b656e2049440000000000000000600082015250565b7f4552433732313a20617070726f76616c20746f2063757272656e74206f776e6560008201527f7200000000000000000000000000000000000000000000000000000000000000602082015250565b7f4552433732313a2063616c6c6572206973206e6f7420746f6b656e206f776e6560008201527f72206e6f7220617070726f766564000000000000000000000000000000000000602082015250565b613b6181613604565b8114613b6c57600080fd5b50565b613b7881613616565b8114613b8357600080fd5b50565b613b8f81613622565b8114613b9a57600080fd5b50565b613ba68161366e565b8114613bb157600080fd5b5056fea26469706673582212206e00019715b9f0583604b7f55ee12673d3d1f74bca3480c268740df73619dd0a64736f6c63430008040033",
  "linkReferences": {},
  "deployedLinkReferences": {}
}