{
  "_format": "hh-sol-artifact-1",
  "contractName": "MIXToken",
  "sourceName": "contracts/MixVerseToken.sol",
  "abi": [
    {
      "inputs": [],
      "stateMutability": "nonpayable",
      "type": "constructor"
    },
    {
      "anonymous": false,
      "inputs": [
        {
          "indexed": true,
          "internalType": "address",
          "name": "owner",
          "type": "address"
        },
        {
          "indexed": true,
          "internalType": "address",
          "name": "spender",
          "type": "address"
        },
        {
          "indexed": false,
          "internalType": "uint256",
          "name": "value",
          "type": "uint256"
        }
      ],
      "name": "Approval",
      "type": "event"
    },
    {
      "anonymous": false,
      "inputs": [
        {
          "indexed": true,
          "internalType": "address",
          "name": "previousOwner",
          "type": "address"
        },
        {
          "indexed": true,
          "internalType": "address",
          "name": "newOwner",
          "type": "address"
        }
      ],
      "name": "OwnershipTransferred",
      "type": "event"
    },
    {
      "anonymous": false,
      "inputs": [
        {
          "indexed": true,
          "internalType": "address",
          "name": "from",
          "type": "address"
        },
        {
          "indexed": true,
          "internalType": "address",
          "name": "to",
          "type": "address"
        },
        {
          "indexed": false,
          "internalType": "uint256",
          "name": "value",
          "type": "uint256"
        }
      ],
      "name": "Transfer",
      "type": "event"
    },
    {
      "inputs": [
        {
          "internalType": "address",
          "name": "_addMinter",
          "type": "address"
        }
      ],
      "name": "addMinter",
      "outputs": [
        {
          "internalType": "bool",
          "name": "",
          "type": "bool"
        }
      ],
      "stateMutability": "nonpayable",
      "type": "function"
    },
    {
      "inputs": [
        {
          "internalType": "address",
          "name": "owner",
          "type": "address"
        },
        {
          "internalType": "address",
          "name": "spender",
          "type": "address"
        }
      ],
      "name": "allowance",
      "outputs": [
        {
          "internalType": "uint256",
          "name": "",
          "type": "uint256"
        }
      ],
      "stateMutability": "view",
      "type": "function"
    },
    {
      "inputs": [
        {
          "internalType": "address",
          "name": "spender",
          "type": "address"
        },
        {
          "internalType": "uint256",
          "name": "amount",
          "type": "uint256"
        }
      ],
      "name": "approve",
      "outputs": [
        {
          "internalType": "bool",
          "name": "",
          "type": "bool"
        }
      ],
      "stateMutability": "nonpayable",
      "type": "function"
    },
    {
      "inputs": [
        {
          "internalType": "address",
          "name": "account",
          "type": "address"
        }
      ],
      "name": "balanceOf",
      "outputs": [
        {
          "internalType": "uint256",
          "name": "",
          "type": "uint256"
        }
      ],
      "stateMutability": "view",
      "type": "function"
    },
    {
      "inputs": [],
      "name": "decimals",
      "outputs": [
        {
          "internalType": "uint8",
          "name": "",
          "type": "uint8"
        }
      ],
      "stateMutability": "view",
      "type": "function"
    },
    {
      "inputs": [
        {
          "internalType": "address",
          "name": "spender",
          "type": "address"
        },
        {
          "internalType": "uint256",
          "name": "subtractedValue",
          "type": "uint256"
        }
      ],
      "name": "decreaseAllowance",
      "outputs": [
        {
          "internalType": "bool",
          "name": "",
          "type": "bool"
        }
      ],
      "stateMutability": "nonpayable",
      "type": "function"
    },
    {
      "inputs": [
        {
          "internalType": "address",
          "name": "_delMinter",
          "type": "address"
        }
      ],
      "name": "delMinter",
      "outputs": [
        {
          "internalType": "bool",
          "name": "",
          "type": "bool"
        }
      ],
      "stateMutability": "nonpayable",
      "type": "function"
    },
    {
      "inputs": [
        {
          "internalType": "uint256",
          "name": "_index",
          "type": "uint256"
        }
      ],
      "name": "getMinter",
      "outputs": [
        {
          "internalType": "address",
          "name": "",
          "type": "address"
        }
      ],
      "stateMutability": "view",
      "type": "function"
    },
    {
      "inputs": [],
      "name": "getMinterLength",
      "outputs": [
        {
          "internalType": "uint256",
          "name": "",
          "type": "uint256"
        }
      ],
      "stateMutability": "view",
      "type": "function"
    },
    {
      "inputs": [
        {
          "internalType": "address",
          "name": "spender",
          "type": "address"
        },
        {
          "internalType": "uint256",
          "name": "addedValue",
          "type": "uint256"
        }
      ],
      "name": "increaseAllowance",
      "outputs": [
        {
          "internalType": "bool",
          "name": "",
          "type": "bool"
        }
      ],
      "stateMutability": "nonpayable",
      "type": "function"
    },
    {
      "inputs": [
        {
          "internalType": "address",
          "name": "account",
          "type": "address"
        }
      ],
      "name": "isMinter",
      "outputs": [
        {
          "internalType": "bool",
          "name": "",
          "type": "bool"
        }
      ],
      "stateMutability": "view",
      "type": "function"
    },
    {
      "inputs": [
        {
          "internalType": "address",
          "name": "_to",
          "type": "address"
        },
        {
          "internalType": "uint256",
          "name": "_amount",
          "type": "uint256"
        }
      ],
      "name": "mint",
      "outputs": [
        {
          "internalType": "bool",
          "name": "",
          "type": "bool"
        }
      ],
      "stateMutability": "nonpayable",
      "type": "function"
    },
    {
      "inputs": [],
      "name": "name",
      "outputs": [
        {
          "internalType": "string",
          "name": "",
          "type": "string"
        }
      ],
      "stateMutability": "view",
      "type": "function"
    },
    {
      "inputs": [],
      "name": "owner",
      "outputs": [
        {
          "internalType": "address",
          "name": "",
          "type": "address"
        }
      ],
      "stateMutability": "view",
      "type": "function"
    },
    {
      "inputs": [],
      "name": "renounceOwnership",
      "outputs": [],
      "stateMutability": "nonpayable",
      "type": "function"
    },
    {
      "inputs": [],
      "name": "symbol",
      "outputs": [
        {
          "internalType": "string",
          "name": "",
          "type": "string"
        }
      ],
      "stateMutability": "view",
      "type": "function"
    },
    {
      "inputs": [],
      "name": "totalSupply",
      "outputs": [
        {
          "internalType": "uint256",
          "name": "",
          "type": "uint256"
        }
      ],
      "stateMutability": "view",
      "type": "function"
    },
    {
      "inputs": [
        {
          "internalType": "address",
          "name": "to",
          "type": "address"
        },
        {
          "internalType": "uint256",
          "name": "amount",
          "type": "uint256"
        }
      ],
      "name": "transfer",
      "outputs": [
        {
          "internalType": "bool",
          "name": "",
          "type": "bool"
        }
      ],
      "stateMutability": "nonpayable",
      "type": "function"
    },
    {
      "inputs": [
        {
          "internalType": "address",
          "name": "from",
          "type": "address"
        },
        {
          "internalType": "address",
          "name": "to",
          "type": "address"
        },
        {
          "internalType": "uint256",
          "name": "amount",
          "type": "uint256"
        }
      ],
      "name": "transferFrom",
      "outputs": [
        {
          "internalType": "bool",
          "name": "",
          "type": "bool"
        }
      ],
      "stateMutability": "nonpayable",
      "type": "function"
    },
    {
      "inputs": [
        {
          "internalType": "address",
          "name": "newOwner",
          "type": "address"
        }
      ],
      "name": "transferOwnership",
      "outputs": [],
      "stateMutability": "nonpayable",
      "type": "function"
    }
  ],
  "bytecode": "0x60806040523480156200001157600080fd5b506040518060400160405280600e81526020017f4d6978566572736520546f6b656e0000000000000000000000000000000000008152506040518060400160405280600381526020017f4d495800000000000000000000000000000000000000000000000000000000008152506200009e62000092620000fa60201b60201c565b6200010260201b60201c565b8160049080519060200190620000b69291906200034a565b508060059080519060200190620000cf9291906200034a565b505050620000f4620000e6620000fa60201b60201c565b6000620001c660201b60201c565b620005a6565b600033905090565b60008060009054906101000a900473ffffffffffffffffffffffffffffffffffffffff169050816000806101000a81548173ffffffffffffffffffffffffffffffffffffffff021916908373ffffffffffffffffffffffffffffffffffffffff1602179055508173ffffffffffffffffffffffffffffffffffffffff168173ffffffffffffffffffffffffffffffffffffffff167f8be0079c531659141344cd1fd0a4f28419497f9722a3daafe3b4186f6b6457e060405160405180910390a35050565b600073ffffffffffffffffffffffffffffffffffffffff168273ffffffffffffffffffffffffffffffffffffffff16141562000239576040517f08c379a0000000000000000000000000000000000000000000000000000000008152600401620002309062000432565b60405180910390fd5b6200024d600083836200034060201b60201c565b806003600082825462000261919062000482565b9250508190555080600160008473ffffffffffffffffffffffffffffffffffffffff1673ffffffffffffffffffffffffffffffffffffffff1681526020019081526020016000206000828254620002b9919062000482565b925050819055508173ffffffffffffffffffffffffffffffffffffffff16600073ffffffffffffffffffffffffffffffffffffffff167fddf252ad1be2c89b69c2b068fc378daa952ba7f163c4a11628f55a4df523b3ef8360405162000320919062000454565b60405180910390a36200033c600083836200034560201b60201c565b5050565b505050565b505050565b8280546200035890620004e9565b90600052602060002090601f0160209004810192826200037c5760008555620003c8565b82601f106200039757805160ff1916838001178555620003c8565b82800160010185558215620003c8579182015b82811115620003c7578251825591602001919060010190620003aa565b5b509050620003d79190620003db565b5090565b5b80821115620003f6576000816000905550600101620003dc565b5090565b600062000409601f8362000471565b915062000416826200057d565b602082019050919050565b6200042c81620004df565b82525050565b600060208201905081810360008301526200044d81620003fa565b9050919050565b60006020820190506200046b600083018462000421565b92915050565b600082825260208201905092915050565b60006200048f82620004df565b91506200049c83620004df565b9250827fffffffffffffffffffffffffffffffffffffffffffffffffffffffffffffffff03821115620004d457620004d36200051f565b5b828201905092915050565b6000819050919050565b600060028204905060018216806200050257607f821691505b602082108114156200051957620005186200054e565b5b50919050565b7f4e487b7100000000000000000000000000000000000000000000000000000000600052601160045260246000fd5b7f4e487b7100000000000000000000000000000000000000000000000000000000600052602260045260246000fd5b7f45524332303a206d696e7420746f20746865207a65726f206164647265737300600082015250565b61211480620005b66000396000f3fe608060405234801561001057600080fd5b506004361061012c5760003560e01c806370a08231116100ad578063a457c2d711610071578063a457c2d71461036f578063a9059cbb1461039f578063aa271e1a146103cf578063dd62ed3e146103ff578063f2fde38b1461042f5761012c565b806370a08231146102c9578063715018a6146102f95780638da5cb5b1461030357806395d89b4114610321578063983b2d561461033f5761012c565b806323b872dd116100f457806323b872dd146101eb578063313ce5671461021b578063395093511461023957806340c10f19146102695780635b7121f8146102995761012c565b80630323aac71461013157806306fdde031461014f578063095ea7b31461016d57806318160ddd1461019d57806323338b88146101bb575b600080fd5b61013961044b565b6040516101469190611b17565b60405180910390f35b61015761045c565b6040516101649190611935565b60405180910390f35b6101876004803603810190610182919061163b565b6104ee565b604051610194919061191a565b60405180910390f35b6101a5610511565b6040516101b29190611b17565b60405180910390f35b6101d560048036038101906101d09190611587565b61051b565b6040516101e2919061191a565b60405180910390f35b610205600480360381019061020091906115ec565b6105a7565b604051610212919061191a565b60405180910390f35b6102236105d6565b6040516102309190611b32565b60405180910390f35b610253600480360381019061024e919061163b565b6105df565b604051610260919061191a565b60405180910390f35b610283600480360381019061027e919061163b565b610616565b604051610290919061191a565b60405180910390f35b6102b360048036038101906102ae9190611677565b6106a5565b6040516102c091906118ff565b60405180910390f35b6102e360048036038101906102de9190611587565b610717565b6040516102f09190611b17565b60405180910390f35b610301610760565b005b61030b610774565b60405161031891906118ff565b60405180910390f35b61032961079d565b6040516103369190611935565b60405180910390f35b61035960048036038101906103549190611587565b61082f565b604051610366919061191a565b60405180910390f35b6103896004803603810190610384919061163b565b6108bb565b604051610396919061191a565b60405180910390f35b6103b960048036038101906103b4919061163b565b610932565b6040516103c6919061191a565b60405180910390f35b6103e960048036038101906103e49190611587565b610955565b6040516103f6919061191a565b60405180910390f35b610419600480360381019061041491906115b0565b610972565b6040516104269190611b17565b60405180910390f35b61044960048036038101906104449190611587565b6109f9565b005b60006104576006610a7d565b905090565b60606004805461046b90611c7b565b80601f016020809104026020016040519081016040528092919081815260200182805461049790611c7b565b80156104e45780601f106104b9576101008083540402835291602001916104e4565b820191906000526020600020905b8154815290600101906020018083116104c757829003601f168201915b5050505050905090565b6000806104f9610a92565b9050610506818585610a9a565b600191505092915050565b6000600354905090565b6000610525610c65565b600073ffffffffffffffffffffffffffffffffffffffff168273ffffffffffffffffffffffffffffffffffffffff161415610595576040517f08c379a000000000000000000000000000000000000000000000000000000000815260040161058c90611a17565b60405180910390fd5b6105a0600683610ce3565b9050919050565b6000806105b2610a92565b90506105bf858285610d13565b6105ca858585610d9f565b60019150509392505050565b60006012905090565b6000806105ea610a92565b905061060b8185856105fc8589610972565b6106069190611b69565b610a9a565b600191505092915050565b6000610628610623610a92565b610955565b610667576040517f08c379a000000000000000000000000000000000000000000000000000000000815260040161065e90611a37565b60405180910390fd5b6305f5e100610686610677610511565b8461102390919063ffffffff16565b111561069157600080fd5b61069b8383611039565b6001905092915050565b60006106af610c65565b60016106b961044b565b6106c39190611bbf565b821115610705576040517f08c379a00000000000000000000000000000000000000000000000000000000081526004016106fc90611ab7565b60405180910390fd5b61071060068361119a565b9050919050565b6000600160008373ffffffffffffffffffffffffffffffffffffffff1673ffffffffffffffffffffffffffffffffffffffff168152602001908152602001600020549050919050565b610768610c65565b61077260006111b4565b565b60008060009054906101000a900473ffffffffffffffffffffffffffffffffffffffff16905090565b6060600580546107ac90611c7b565b80601f01602080910402602001604051908101604052809291908181526020018280546107d890611c7b565b80156108255780601f106107fa57610100808354040283529160200191610825565b820191906000526020600020905b81548152906001019060200180831161080857829003601f168201915b5050505050905090565b6000610839610c65565b600073ffffffffffffffffffffffffffffffffffffffff168273ffffffffffffffffffffffffffffffffffffffff1614156108a9576040517f08c379a00000000000000000000000000000000000000000000000000000000081526004016108a0906119f7565b60405180910390fd5b6108b4600683611278565b9050919050565b6000806108c6610a92565b905060006108d48286610972565b905083811015610919576040517f08c379a000000000000000000000000000000000000000000000000000000000815260040161091090611ad7565b60405180910390fd5b6109268286868403610a9a565b60019250505092915050565b60008061093d610a92565b905061094a818585610d9f565b600191505092915050565b600061096b8260066112a890919063ffffffff16565b9050919050565b6000600260008473ffffffffffffffffffffffffffffffffffffffff1673ffffffffffffffffffffffffffffffffffffffff16815260200190815260200160002060008373ffffffffffffffffffffffffffffffffffffffff1673ffffffffffffffffffffffffffffffffffffffff16815260200190815260200160002054905092915050565b610a01610c65565b600073ffffffffffffffffffffffffffffffffffffffff168173ffffffffffffffffffffffffffffffffffffffff161415610a71576040517f08c379a0000000000000000000000000000000000000000000000000000000008152600401610a6890611977565b60405180910390fd5b610a7a816111b4565b50565b6000610a8b826000016112d8565b9050919050565b600033905090565b600073ffffffffffffffffffffffffffffffffffffffff168373ffffffffffffffffffffffffffffffffffffffff161415610b0a576040517f08c379a0000000000000000000000000000000000000000000000000000000008152600401610b0190611a97565b60405180910390fd5b600073ffffffffffffffffffffffffffffffffffffffff168273ffffffffffffffffffffffffffffffffffffffff161415610b7a576040517f08c379a0000000000000000000000000000000000000000000000000000000008152600401610b7190611997565b60405180910390fd5b80600260008573ffffffffffffffffffffffffffffffffffffffff1673ffffffffffffffffffffffffffffffffffffffff16815260200190815260200160002060008473ffffffffffffffffffffffffffffffffffffffff1673ffffffffffffffffffffffffffffffffffffffff168152602001908152602001600020819055508173ffffffffffffffffffffffffffffffffffffffff168373ffffffffffffffffffffffffffffffffffffffff167f8c5be1e5ebec7d5bd14f71427d1e84f3dd0314c0f7b2291e5b200ac8c7c3b92583604051610c589190611b17565b60405180910390a3505050565b610c6d610a92565b73ffffffffffffffffffffffffffffffffffffffff16610c8b610774565b73ffffffffffffffffffffffffffffffffffffffff1614610ce1576040517f08c379a0000000000000000000000000000000000000000000000000000000008152600401610cd890611a57565b60405180910390fd5b565b6000610d0b836000018373ffffffffffffffffffffffffffffffffffffffff1660001b6112e9565b905092915050565b6000610d1f8484610972565b90507fffffffffffffffffffffffffffffffffffffffffffffffffffffffffffffffff8114610d995781811015610d8b576040517f08c379a0000000000000000000000000000000000000000000000000000000008152600401610d82906119b7565b60405180910390fd5b610d988484848403610a9a565b5b50505050565b600073ffffffffffffffffffffffffffffffffffffffff168373ffffffffffffffffffffffffffffffffffffffff161415610e0f576040517f08c379a0000000000000000000000000000000000000000000000000000000008152600401610e0690611a77565b60405180910390fd5b600073ffffffffffffffffffffffffffffffffffffffff168273ffffffffffffffffffffffffffffffffffffffff161415610e7f576040517f08c379a0000000000000000000000000000000000000000000000000000000008152600401610e7690611957565b60405180910390fd5b610e8a83838361146f565b6000600160008573ffffffffffffffffffffffffffffffffffffffff1673ffffffffffffffffffffffffffffffffffffffff16815260200190815260200160002054905081811015610f11576040517f08c379a0000000000000000000000000000000000000000000000000000000008152600401610f08906119d7565b60405180910390fd5b818103600160008673ffffffffffffffffffffffffffffffffffffffff1673ffffffffffffffffffffffffffffffffffffffff1681526020019081526020016000208190555081600160008573ffffffffffffffffffffffffffffffffffffffff1673ffffffffffffffffffffffffffffffffffffffff1681526020019081526020016000206000828254610fa69190611b69565b925050819055508273ffffffffffffffffffffffffffffffffffffffff168473ffffffffffffffffffffffffffffffffffffffff167fddf252ad1be2c89b69c2b068fc378daa952ba7f163c4a11628f55a4df523b3ef8460405161100a9190611b17565b60405180910390a361101d848484611474565b50505050565b600081836110319190611b69565b905092915050565b600073ffffffffffffffffffffffffffffffffffffffff168273ffffffffffffffffffffffffffffffffffffffff1614156110a9576040517f08c379a00000000000000000000000000000000000000000000000000000000081526004016110a090611af7565b60405180910390fd5b6110b56000838361146f565b80600360008282546110c79190611b69565b9250508190555080600160008473ffffffffffffffffffffffffffffffffffffffff1673ffffffffffffffffffffffffffffffffffffffff168152602001908152602001600020600082825461111d9190611b69565b925050819055508173ffffffffffffffffffffffffffffffffffffffff16600073ffffffffffffffffffffffffffffffffffffffff167fddf252ad1be2c89b69c2b068fc378daa952ba7f163c4a11628f55a4df523b3ef836040516111829190611b17565b60405180910390a361119660008383611474565b5050565b60006111a98360000183611479565b60001c905092915050565b60008060009054906101000a900473ffffffffffffffffffffffffffffffffffffffff169050816000806101000a81548173ffffffffffffffffffffffffffffffffffffffff021916908373ffffffffffffffffffffffffffffffffffffffff1602179055508173ffffffffffffffffffffffffffffffffffffffff168173ffffffffffffffffffffffffffffffffffffffff167f8be0079c531659141344cd1fd0a4f28419497f9722a3daafe3b4186f6b6457e060405160405180910390a35050565b60006112a0836000018373ffffffffffffffffffffffffffffffffffffffff1660001b6114ca565b905092915050565b60006112d0836000018373ffffffffffffffffffffffffffffffffffffffff1660001b61153a565b905092915050565b600081600001805490509050919050565b6000808360010160008481526020019081526020016000205490506000811461146357600060018261131b9190611bbf565b90506000600186600001805490506113339190611bbf565b90508181146113ee57600086600001828154811061137a577f4e487b7100000000000000000000000000000000000000000000000000000000600052603260045260246000fd5b90600052602060002001549050808760000184815481106113c4577f4e487b7100000000000000000000000000000000000000000000000000000000600052603260045260246000fd5b90600052602060002001819055508387600101600083815260200190815260200160002081905550505b85600001805480611428577f4e487b7100000000000000000000000000000000000000000000000000000000600052603160045260246000fd5b600190038181906000526020600020016000905590558560010160008681526020019081526020016000206000905560019350505050611469565b60009150505b92915050565b505050565b505050565b60008260000182815481106114b7577f4e487b7100000000000000000000000000000000000000000000000000000000600052603260045260246000fd5b9060005260206000200154905092915050565b60006114d6838361153a565b61152f578260000182908060018154018082558091505060019003906000526020600020016000909190919091505582600001805490508360010160008481526020019081526020016000208190555060019050611534565b600090505b92915050565b600080836001016000848152602001908152602001600020541415905092915050565b60008135905061156c816120b0565b92915050565b600081359050611581816120c7565b92915050565b60006020828403121561159957600080fd5b60006115a78482850161155d565b91505092915050565b600080604083850312156115c357600080fd5b60006115d18582860161155d565b92505060206115e28582860161155d565b9150509250929050565b60008060006060848603121561160157600080fd5b600061160f8682870161155d565b93505060206116208682870161155d565b925050604061163186828701611572565b9150509250925092565b6000806040838503121561164e57600080fd5b600061165c8582860161155d565b925050602061166d85828601611572565b9150509250929050565b60006020828403121561168957600080fd5b600061169784828501611572565b91505092915050565b6116a981611bf3565b82525050565b6116b881611c05565b82525050565b60006116c982611b4d565b6116d38185611b58565b93506116e3818560208601611c48565b6116ec81611d0b565b840191505092915050565b6000611704602383611b58565b915061170f82611d1c565b604082019050919050565b6000611727602683611b58565b915061173282611d6b565b604082019050919050565b600061174a602283611b58565b915061175582611dba565b604082019050919050565b600061176d601d83611b58565b915061177882611e09565b602082019050919050565b6000611790602683611b58565b915061179b82611e32565b604082019050919050565b60006117b3602983611b58565b91506117be82611e81565b604082019050919050565b60006117d6602983611b58565b91506117e182611ed0565b604082019050919050565b60006117f9601883611b58565b915061180482611f1f565b602082019050919050565b600061181c602083611b58565b915061182782611f48565b602082019050919050565b600061183f602583611b58565b915061184a82611f71565b604082019050919050565b6000611862602483611b58565b915061186d82611fc0565b604082019050919050565b6000611885601d83611b58565b91506118908261200f565b602082019050919050565b60006118a8602583611b58565b91506118b382612038565b604082019050919050565b60006118cb601f83611b58565b91506118d682612087565b602082019050919050565b6118ea81611c31565b82525050565b6118f981611c3b565b82525050565b600060208201905061191460008301846116a0565b92915050565b600060208201905061192f60008301846116af565b92915050565b6000602082019050818103600083015261194f81846116be565b905092915050565b60006020820190508181036000830152611970816116f7565b9050919050565b600060208201905081810360008301526119908161171a565b9050919050565b600060208201905081810360008301526119b08161173d565b9050919050565b600060208201905081810360008301526119d081611760565b9050919050565b600060208201905081810360008301526119f081611783565b9050919050565b60006020820190508181036000830152611a10816117a6565b9050919050565b60006020820190508181036000830152611a30816117c9565b9050919050565b60006020820190508181036000830152611a50816117ec565b9050919050565b60006020820190508181036000830152611a708161180f565b9050919050565b60006020820190508181036000830152611a9081611832565b9050919050565b60006020820190508181036000830152611ab081611855565b9050919050565b60006020820190508181036000830152611ad081611878565b9050919050565b60006020820190508181036000830152611af08161189b565b9050919050565b60006020820190508181036000830152611b10816118be565b9050919050565b6000602082019050611b2c60008301846118e1565b92915050565b6000602082019050611b4760008301846118f0565b92915050565b600081519050919050565b600082825260208201905092915050565b6000611b7482611c31565b9150611b7f83611c31565b9250827fffffffffffffffffffffffffffffffffffffffffffffffffffffffffffffffff03821115611bb457611bb3611cad565b5b828201905092915050565b6000611bca82611c31565b9150611bd583611c31565b925082821015611be857611be7611cad565b5b828203905092915050565b6000611bfe82611c11565b9050919050565b60008115159050919050565b600073ffffffffffffffffffffffffffffffffffffffff82169050919050565b6000819050919050565b600060ff82169050919050565b60005b83811015611c66578082015181840152602081019050611c4b565b83811115611c75576000848401525b50505050565b60006002820490506001821680611c9357607f821691505b60208210811415611ca757611ca6611cdc565b5b50919050565b7f4e487b7100000000000000000000000000000000000000000000000000000000600052601160045260246000fd5b7f4e487b7100000000000000000000000000000000000000000000000000000000600052602260045260246000fd5b6000601f19601f8301169050919050565b7f45524332303a207472616e7366657220746f20746865207a65726f206164647260008201527f6573730000000000000000000000000000000000000000000000000000000000602082015250565b7f4f776e61626c653a206e6577206f776e657220697320746865207a65726f206160008201527f6464726573730000000000000000000000000000000000000000000000000000602082015250565b7f45524332303a20617070726f766520746f20746865207a65726f20616464726560008201527f7373000000000000000000000000000000000000000000000000000000000000602082015250565b7f45524332303a20696e73756666696369656e7420616c6c6f77616e6365000000600082015250565b7f45524332303a207472616e7366657220616d6f756e742065786365656473206260008201527f616c616e63650000000000000000000000000000000000000000000000000000602082015250565b7f4d4958546f6b656e3a20205f6164644d696e74657220697320746865207a657260008201527f6f20616464726573730000000000000000000000000000000000000000000000602082015250565b7f4d4958546f6b656e3a20205f64656c4d696e74657220697320746865207a657260008201527f6f20616464726573730000000000000000000000000000000000000000000000602082015250565b7f63616c6c6572206973206e6f7420746865206d696e7465720000000000000000600082015250565b7f4f776e61626c653a2063616c6c6572206973206e6f7420746865206f776e6572600082015250565b7f45524332303a207472616e736665722066726f6d20746865207a65726f20616460008201527f6472657373000000000000000000000000000000000000000000000000000000602082015250565b7f45524332303a20617070726f76652066726f6d20746865207a65726f2061646460008201527f7265737300000000000000000000000000000000000000000000000000000000602082015250565b7f4d4958546f6b656e3a20696e646578206f7574206f6620626f756e6473000000600082015250565b7f45524332303a2064656372656173656420616c6c6f77616e63652062656c6f7760008201527f207a65726f000000000000000000000000000000000000000000000000000000602082015250565b7f45524332303a206d696e7420746f20746865207a65726f206164647265737300600082015250565b6120b981611bf3565b81146120c457600080fd5b50565b6120d081611c31565b81146120db57600080fd5b5056fea2646970667358221220b5cf70deaa80ac33dfc21d81d5b5f71b8e7b3396d2e62be47d0a276c98e18d2a64736f6c63430008040033",
  "linkReferences": {},
  "deployedLinkReferences": {}
}