{
  "_format": "hh-sol-artifact-1",
  "contractName": "Marketplace",
  "sourceName": "contracts/Marketplace.sol",
  "abi": [
    {
      "inputs": [
        {
          "internalType": "contract MxiVerseNFT",
          "name": "_nft",
          "type": "address"
        }
      ],
      "stateMutability": "nonpayable",
      "type": "constructor"
    },
    {
      "anonymous": false,
      "inputs": [
        {
          "indexed": false,
          "internalType": "string",
          "name": "TxType",
          "type": "string"
        },
        {
          "indexed": false,
          "internalType": "address",
          "name": "owner",
          "type": "address"
        },
        {
          "indexed": false,
          "internalType": "uint256",
          "name": "tokenId",
          "type": "uint256"
        }
      ],
      "name": "MarketTransaction",
      "type": "event"
    },
    {
      "inputs": [
        {
          "internalType": "uint256",
          "name": "_tokenId",
          "type": "uint256"
        }
      ],
      "name": "buyToken",
      "outputs": [],
      "stateMutability": "payable",
      "type": "function"
    },
    {
      "inputs": [
        {
          "internalType": "uint256",
          "name": "_price",
          "type": "uint256"
        },
        {
          "internalType": "uint256",
          "name": "_tokenId",
          "type": "uint256"
        }
      ],
      "name": "createOffer",
      "outputs": [],
      "stateMutability": "nonpayable",
      "type": "function"
    },
    {
      "inputs": [],
      "name": "getContractAddress",
      "outputs": [
        {
          "internalType": "address",
          "name": "",
          "type": "address"
        }
      ],
      "stateMutability": "view",
      "type": "function"
    },
    {
      "inputs": [
        {
          "internalType": "uint256",
          "name": "tokenId",
          "type": "uint256"
        }
      ],
      "name": "getOffer",
      "outputs": [
        {
          "internalType": "address",
          "name": "",
          "type": "address"
        },
        {
          "internalType": "uint256",
          "name": "",
          "type": "uint256"
        },
        {
          "internalType": "uint256",
          "name": "",
          "type": "uint256"
        },
        {
          "internalType": "uint256",
          "name": "",
          "type": "uint256"
        },
        {
          "internalType": "bool",
          "name": "",
          "type": "bool"
        }
      ],
      "stateMutability": "view",
      "type": "function"
    },
    {
      "inputs": [],
      "name": "getOfferIds",
      "outputs": [
        {
          "internalType": "uint256[]",
          "name": "",
          "type": "uint256[]"
        }
      ],
      "stateMutability": "view",
      "type": "function"
    },
    {
      "inputs": [],
      "name": "getOffers",
      "outputs": [
        {
          "components": [
            {
              "internalType": "address payable",
              "name": "seller",
              "type": "address"
            },
            {
              "internalType": "uint256",
              "name": "price",
              "type": "uint256"
            },
            {
              "internalType": "uint256",
              "name": "index",
              "type": "uint256"
            },
            {
              "internalType": "uint256",
              "name": "tokenId",
              "type": "uint256"
            },
            {
              "internalType": "bool",
              "name": "active",
              "type": "bool"
            }
          ],
          "internalType": "struct Marketplace.Offer[]",
          "name": "",
          "type": "tuple[]"
        }
      ],
      "stateMutability": "view",
      "type": "function"
    },
    {
      "inputs": [
        {
          "internalType": "uint256",
          "name": "_tokenId",
          "type": "uint256"
        }
      ],
      "name": "removeOffer",
      "outputs": [],
      "stateMutability": "nonpayable",
      "type": "function"
    }
  ],
  "bytecode": "0x60806040523480156200001157600080fd5b506040516200202c3803806200202c833981810160405281019062000037919062000095565b806000806101000a81548173ffffffffffffffffffffffffffffffffffffffff021916908373ffffffffffffffffffffffffffffffffffffffff1602179055505062000123565b6000815190506200008f8162000109565b92915050565b600060208284031215620000a857600080fd5b6000620000b8848285016200007e565b91505092915050565b6000620000ce82620000e9565b9050919050565b6000620000e282620000c1565b9050919050565b600073ffffffffffffffffffffffffffffffffffffffff82169050919050565b6200011481620000d5565b81146200012057600080fd5b50565b611ef980620001336000396000f3fe6080604052600436106100705760003560e01c806332a2c5d01161004e57806332a2c5d0146100e55780633ee992ee146101105780634579268a1461013b57806395a0f9c71461017c57610070565b8063010cd68b146100755780631afed875146100a05780632d296bf1146100c9575b600080fd5b34801561008157600080fd5b5061008a6101a5565b6040516100979190611866565b60405180910390f35b3480156100ac57600080fd5b506100c760048036038101906100c291906113fc565b61035e565b005b6100e360048036038101906100de91906113d3565b610420565b005b3480156100f157600080fd5b506100fa6105e3565b604051610107919061179f565b60405180910390f35b34801561011c57600080fd5b506101256105eb565b6040516101329190611844565b60405180910390f35b34801561014757600080fd5b50610162600480360381019061015d91906113d3565b6107c2565b6040516101739594939291906117f1565b60405180910390f35b34801561018857600080fd5b506101a3600480360381019061019e91906113d3565b610892565b005b606060006001805490509050600081141561023257600067ffffffffffffffff8111156101fb577f4e487b7100000000000000000000000000000000000000000000000000000000600052604160045260246000fd5b6040519080825280602002602001820160405280156102295781602001602082028036833780820191505090505b5091505061035b565b60008167ffffffffffffffff811115610274577f4e487b7100000000000000000000000000000000000000000000000000000000600052604160045260246000fd5b6040519080825280602002602001820160405280156102a25781602001602082028036833780820191505090505b50905060005b8281101561035457600181815481106102ea577f4e487b7100000000000000000000000000000000000000000000000000000000600052603260045260246000fd5b906000526020600020906005020160030154828281518110610335577f4e487b7100000000000000000000000000000000000000000000000000000000600052603260045260246000fd5b602002602001018181525050808061034c90611b73565b9150506102a8565b5080925050505b90565b61036833826109c3565b6103a7576040517f08c379a000000000000000000000000000000000000000000000000000000000815260040161039e906119fc565b60405180910390fd5b600015156002600083815260200190815260200160002060040160009054906101000a900460ff16151514610411576040517f08c379a0000000000000000000000000000000000000000000000000000000008152600401610408906118c8565b60405180910390fd5b61041c828233610aa4565b5050565b6000600260008381526020019081526020016000206040518060a00160405290816000820160009054906101000a900473ffffffffffffffffffffffffffffffffffffffff1673ffffffffffffffffffffffffffffffffffffffff1673ffffffffffffffffffffffffffffffffffffffff1681526020016001820154815260200160028201548152602001600382015481526020016004820160009054906101000a900460ff161515151581525050905080602001513414610517576040517f08c379a000000000000000000000000000000000000000000000000000000000815260040161050e90611924565b60405180910390fd5b3373ffffffffffffffffffffffffffffffffffffffff16816000015173ffffffffffffffffffffffffffffffffffffffff16141561058a576040517f08c379a0000000000000000000000000000000000000000000000000000000008152600401610581906119dc565b60405180910390fd5b6001151581608001511515146105d5576040517f08c379a00000000000000000000000000000000000000000000000000000000081526004016105cc906118a8565b60405180910390fd5b6105df8233610c7b565b5050565b600030905090565b60606000600180549050905060008167ffffffffffffffff811115610639577f4e487b7100000000000000000000000000000000000000000000000000000000600052604160045260246000fd5b60405190808252806020026020018201604052801561067257816020015b61065f611339565b8152602001906001900390816106575790505b50905060005b828110156107b957600181815481106106ba577f4e487b7100000000000000000000000000000000000000000000000000000000600052603260045260246000fd5b90600052602060002090600502016040518060a00160405290816000820160009054906101000a900473ffffffffffffffffffffffffffffffffffffffff1673ffffffffffffffffffffffffffffffffffffffff1673ffffffffffffffffffffffffffffffffffffffff1681526020016001820154815260200160028201548152602001600382015481526020016004820160009054906101000a900460ff16151515158152505082828151811061079b577f4e487b7100000000000000000000000000000000000000000000000000000000600052603260045260246000fd5b602002602001018190525080806107b190611b73565b915050610678565b50809250505090565b600080600080600080600260008881526020019081526020016000209050600115158160040160009054906101000a900460ff16151514610838576040517f08c379a000000000000000000000000000000000000000000000000000000000815260040161082f90611888565b60405180910390fd5b8060000160009054906101000a900473ffffffffffffffffffffffffffffffffffffffff168160010154826002015483600301548460040160009054906101000a900460ff16955095509550955095505091939590929450565b6000600260008381526020019081526020016000206040518060a00160405290816000820160009054906101000a900473ffffffffffffffffffffffffffffffffffffffff1673ffffffffffffffffffffffffffffffffffffffff1673ffffffffffffffffffffffffffffffffffffffff1681526020016001820154815260200160028201548152602001600382015481526020016004820160009054906101000a900460ff16151515158152505090503373ffffffffffffffffffffffffffffffffffffffff16816000015173ffffffffffffffffffffffffffffffffffffffff16146109b5576040517f08c379a00000000000000000000000000000000000000000000000000000000081526004016109ac90611a1c565b60405180910390fd5b6109bf8233610ec3565b5050565b60008273ffffffffffffffffffffffffffffffffffffffff1660008054906101000a900473ffffffffffffffffffffffffffffffffffffffff1673ffffffffffffffffffffffffffffffffffffffff16636352211e846040518263ffffffff1660e01b8152600401610a359190611a3c565b60206040518083038186803b158015610a4d57600080fd5b505afa158015610a61573d6000803e3d6000fd5b505050506040513d601f19601f82011682018060405250810190610a8591906113aa565b73ffffffffffffffffffffffffffffffffffffffff1614905092915050565b60006040518060a001604052808373ffffffffffffffffffffffffffffffffffffffff1681526020018581526020016001805490508152602001848152602001600115158152509050806002600085815260200190815260200160002060008201518160000160006101000a81548173ffffffffffffffffffffffffffffffffffffffff021916908373ffffffffffffffffffffffffffffffffffffffff16021790555060208201518160010155604082015181600201556060820151816003015560808201518160040160006101000a81548160ff021916908315150217905550905050600181908060018154018082558091505060019003906000526020600020906005020160009091909190915060008201518160000160006101000a81548173ffffffffffffffffffffffffffffffffffffffff021916908373ffffffffffffffffffffffffffffffffffffffff16021790555060208201518160010155604082015181600201556060820151816003015560808201518160040160006101000a81548160ff02191690831515021790555050507fd99e4fad9ad6313b1feb588fa8e605e3a9873172f2024330c35dd2b4041a43863384604051610c6d9291906118e8565b60405180910390a150505050565b6000600260008481526020019081526020016000206040518060a00160405290816000820160009054906101000a900473ffffffffffffffffffffffffffffffffffffffff1673ffffffffffffffffffffffffffffffffffffffff1673ffffffffffffffffffffffffffffffffffffffff1681526020016001820154815260200160028201548152602001600382015481526020016004820160009054906101000a900460ff161515151581525050905060008160000151905060008260200151905060008273ffffffffffffffffffffffffffffffffffffffff1682604051610d649061178a565b60006040518083038185875af1925050503d8060008114610da1576040519150601f19603f3d011682016040523d82523d6000602084013e610da6565b606091505b5050905080610dea576040517f08c379a0000000000000000000000000000000000000000000000000000000008152600401610de1906119bc565b60405180910390fd5b60008054906101000a900473ffffffffffffffffffffffffffffffffffffffff1673ffffffffffffffffffffffffffffffffffffffff166323b872dd8487896040518463ffffffff1660e01b8152600401610e47939291906117ba565b600060405180830381600087803b158015610e6157600080fd5b505af1158015610e75573d6000803e3d6000fd5b50505050610e8286610892565b7fd99e4fad9ad6313b1feb588fa8e605e3a9873172f2024330c35dd2b4041a43863387604051610eb3929190611944565b60405180910390a1505050505050565b600060026000848152602001908152602001600020600201549050600060018080549050610ef19190611ae5565b905060008111156111ed5760018181548110610f36577f4e487b7100000000000000000000000000000000000000000000000000000000600052603260045260246000fd5b906000526020600020906005020160018381548110610f7e577f4e487b7100000000000000000000000000000000000000000000000000000000600052603260045260246000fd5b90600052602060002090600502016000820160009054906101000a900473ffffffffffffffffffffffffffffffffffffffff168160000160006101000a81548173ffffffffffffffffffffffffffffffffffffffff021916908373ffffffffffffffffffffffffffffffffffffffff1602179055506001820154816001015560028201548160020155600382015481600301556004820160009054906101000a900460ff168160040160006101000a81548160ff021916908315150217905550905050816001838154811061107c577f4e487b7100000000000000000000000000000000000000000000000000000000600052603260045260246000fd5b906000526020600020906005020160020181905550600182815481106110cb577f4e487b7100000000000000000000000000000000000000000000000000000000600052603260045260246000fd5b90600052602060002090600502016002600060018581548110611117577f4e487b7100000000000000000000000000000000000000000000000000000000600052603260045260246000fd5b90600052602060002090600502016003015481526020019081526020016000206000820160009054906101000a900473ffffffffffffffffffffffffffffffffffffffff168160000160006101000a81548173ffffffffffffffffffffffffffffffffffffffff021916908373ffffffffffffffffffffffffffffffffffffffff1602179055506001820154816001015560028201548160020155600382015481600301556004820160009054906101000a900460ff168160040160006101000a81548160ff0219169083151502179055509050505b6001805480611225577f4e487b7100000000000000000000000000000000000000000000000000000000600052603160045260246000fd5b6001900381819060005260206000209060050201600080820160006101000a81549073ffffffffffffffffffffffffffffffffffffffff02191690556001820160009055600282016000905560038201600090556004820160006101000a81549060ff02191690555050905560026000858152602001908152602001600020600080820160006101000a81549073ffffffffffffffffffffffffffffffffffffffff02191690556001820160009055600282016000905560038201600090556004820160006101000a81549060ff021916905550507fd99e4fad9ad6313b1feb588fa8e605e3a9873172f2024330c35dd2b4041a4386838560405161132b929190611980565b60405180910390a150505050565b6040518060a00160405280600073ffffffffffffffffffffffffffffffffffffffff1681526020016000815260200160008152602001600081526020016000151581525090565b60008151905061138f81611e95565b92915050565b6000813590506113a481611eac565b92915050565b6000602082840312156113bc57600080fd5b60006113ca84828501611380565b91505092915050565b6000602082840312156113e557600080fd5b60006113f384828501611395565b91505092915050565b6000806040838503121561140f57600080fd5b600061141d85828601611395565b925050602061142e85828601611395565b9150509250929050565b60006114448383611704565b60a08301905092915050565b600061145c838361176c565b60208301905092915050565b61147181611b2b565b82525050565b61148081611b19565b82525050565b600061149182611a77565b61149b8185611aa7565b93506114a683611a57565b8060005b838110156114d75781516114be8882611438565b97506114c983611a8d565b9250506001810190506114aa565b5085935050505092915050565b60006114ef82611a82565b6114f98185611ab8565b935061150483611a67565b8060005b8381101561153557815161151c8882611450565b975061152783611a9a565b925050600181019050611508565b5085935050505092915050565b61154b81611b3d565b82525050565b61155a81611b3d565b82525050565b600061156d603483611ad4565b915061157882611beb565b604082019050919050565b6000611590601083611ad4565b915061159b82611c3a565b602082019050919050565b60006115b3602283611ad4565b91506115be82611c63565b604082019050919050565b60006115d6600c83611ad4565b91506115e182611cb2565b602082019050919050565b60006115f9601683611ad4565b915061160482611cdb565b602082019050919050565b600061161c600383611ad4565b915061162782611d04565b602082019050919050565b600061163f600c83611ad4565b915061164a82611d2d565b602082019050919050565b6000611662602f83611ad4565b915061166d82611d56565b604082019050919050565b6000611685600083611ac9565b915061169082611da5565b600082019050919050565b60006116a8602683611ad4565b91506116b382611da8565b604082019050919050565b60006116cb602583611ad4565b91506116d682611df7565b604082019050919050565b60006116ee602583611ad4565b91506116f982611e46565b604082019050919050565b60a08201600082015161171a6000850182611468565b50602082015161172d602085018261176c565b506040820151611740604085018261176c565b506060820151611753606085018261176c565b5060808201516117666080850182611542565b50505050565b61177581611b69565b82525050565b61178481611b69565b82525050565b600061179582611678565b9150819050919050565b60006020820190506117b46000830184611477565b92915050565b60006060820190506117cf6000830186611477565b6117dc6020830185611477565b6117e9604083018461177b565b949350505050565b600060a0820190506118066000830188611477565b611813602083018761177b565b611820604083018661177b565b61182d606083018561177b565b61183a6080830184611551565b9695505050505050565b6000602082019050818103600083015261185e8184611486565b905092915050565b6000602082019050818103600083015261188081846114e4565b905092915050565b600060208201905081810360008301526118a181611560565b9050919050565b600060208201905081810360008301526118c181611583565b9050919050565b600060208201905081810360008301526118e1816115a6565b9050919050565b60006060820190508181036000830152611901816115c9565b90506119106020830185611477565b61191d604083018461177b565b9392505050565b6000602082019050818103600083015261193d816115ec565b9050919050565b6000606082019050818103600083015261195d8161160f565b905061196c6020830185611477565b611979604083018461177b565b9392505050565b6000606082019050818103600083015261199981611632565b90506119a86020830185611477565b6119b5604083018461177b565b9392505050565b600060208201905081810360008301526119d581611655565b9050919050565b600060208201905081810360008301526119f58161169b565b9050919050565b60006020820190508181036000830152611a15816116be565b9050919050565b60006020820190508181036000830152611a35816116e1565b9050919050565b6000602082019050611a51600083018461177b565b92915050565b6000819050602082019050919050565b6000819050602082019050919050565b600081519050919050565b600081519050919050565b6000602082019050919050565b6000602082019050919050565b600082825260208201905092915050565b600082825260208201905092915050565b600081905092915050565b600082825260208201905092915050565b6000611af082611b69565b9150611afb83611b69565b925082821015611b0e57611b0d611bbc565b5b828203905092915050565b6000611b2482611b49565b9050919050565b6000611b3682611b49565b9050919050565b60008115159050919050565b600073ffffffffffffffffffffffffffffffffffffffff82169050919050565b6000819050919050565b6000611b7e82611b69565b91507fffffffffffffffffffffffffffffffffffffffffffffffffffffffffffffffff821415611bb157611bb0611bbc565b5b600182019050919050565b7f4e487b7100000000000000000000000000000000000000000000000000000000600052601160045260246000fd5b7f4d61726b6574706c6163653a205468657265206973206e6f206163746976652060008201527f6f6666657220666f72207468697320746f6b656e000000000000000000000000602082015250565b7f4e6f20616374697665206f726465727300000000000000000000000000000000600082015250565b7f54686572652069732063757272656e746c7920616e20616374697665206f666660008201527f6572000000000000000000000000000000000000000000000000000000000000602082015250565b7f437265617465206f666665720000000000000000000000000000000000000000600082015250565b7f54686520707269636520646f65736e74206d6174636800000000000000000000600082015250565b7f4275790000000000000000000000000000000000000000000000000000000000600082015250565b7f52656d6f7665206f666665720000000000000000000000000000000000000000600082015250565b7f4d61726b6574706c6163653a204661696c656420746f2073656e642066756e6460008201527f7320746f207468652073656c6c65720000000000000000000000000000000000602082015250565b50565b7f4d61726b6574706c6163653a2043616e6e6f7420627920796f7572206f776e2060008201527f746f6b656e210000000000000000000000000000000000000000000000000000602082015250565b7f596f75206d757374206f776e20746865206e667420796f752077616e7420746f60008201527f2073656c6c000000000000000000000000000000000000000000000000000000602082015250565b7f596f75206e65656420746f206265207468652073656c6c6572206f662074686160008201527f74206e6674000000000000000000000000000000000000000000000000000000602082015250565b611e9e81611b19565b8114611ea957600080fd5b50565b611eb581611b69565b8114611ec057600080fd5b5056fea26469706673582212209860a46f00be42487a8190938c582a44bab9bcc7d5c407e9bf2103d3bfaa909b64736f6c63430008040033",
  "linkReferences": {},
  "deployedLinkReferences": {}
}