{
  "_format": "hh-sol-artifact-1",
  "contractName": "MixVerseGame",
  "sourceName": "contracts/MixVerseGame.sol",
  "abi": [
    {
      "inputs": [
        {
          "internalType": "contract MxiVerseNFT",
          "name": "_nft",
          "type": "address"
        },
        {
          "internalType": "string[]",
          "name": "zverseName",
          "type": "string[]"
        },
        {
          "internalType": "string[]",
          "name": "zverseDescription",
          "type": "string[]"
        },
        {
          "internalType": "string[]",
          "name": "zverseImage",
          "type": "string[]"
        }
      ],
      "stateMutability": "payable",
      "type": "constructor"
    },
    {
      "anonymous": false,
      "inputs": [
        {
          "indexed": true,
          "internalType": "address",
          "name": "owner",
          "type": "address"
        },
        {
          "indexed": true,
          "internalType": "address",
          "name": "approved",
          "type": "address"
        },
        {
          "indexed": true,
          "internalType": "uint256",
          "name": "tokenId",
          "type": "uint256"
        }
      ],
      "name": "Approval",
      "type": "event"
    },
    {
      "anonymous": false,
      "inputs": [
        {
          "indexed": true,
          "internalType": "address",
          "name": "owner",
          "type": "address"
        },
        {
          "indexed": true,
          "internalType": "address",
          "name": "operator",
          "type": "address"
        },
        {
          "indexed": false,
          "internalType": "bool",
          "name": "approved",
          "type": "bool"
        }
      ],
      "name": "ApprovalForAll",
      "type": "event"
    },
    {
      "anonymous": false,
      "inputs": [
        {
          "indexed": true,
          "internalType": "address",
          "name": "from",
          "type": "address"
        },
        {
          "indexed": true,
          "internalType": "address",
          "name": "to",
          "type": "address"
        },
        {
          "indexed": true,
          "internalType": "uint256",
          "name": "tokenId",
          "type": "uint256"
        }
      ],
      "name": "Transfer",
      "type": "event"
    },
    {
      "anonymous": false,
      "inputs": [
        {
          "indexed": false,
          "internalType": "address",
          "name": "sender",
          "type": "address"
        },
        {
          "indexed": false,
          "internalType": "uint256",
          "name": "tokenId",
          "type": "uint256"
        },
        {
          "indexed": false,
          "internalType": "uint256",
          "name": "Index",
          "type": "uint256"
        },
        {
          "components": [
            {
              "internalType": "uint256",
              "name": "cryptoFaceIndex",
              "type": "uint256"
            },
            {
              "internalType": "string",
              "name": "name",
              "type": "string"
            },
            {
              "internalType": "string",
              "name": "description",
              "type": "string"
            },
            {
              "internalType": "string",
              "name": "imageURI",
              "type": "string"
            },
            {
              "internalType": "uint256",
              "name": "legendaryHypeLevel",
              "type": "uint256"
            },
            {
              "internalType": "uint256",
              "name": "hypeLevel",
              "type": "uint256"
            },
            {
              "internalType": "uint256",
              "name": "hypeValue",
              "type": "uint256"
            }
          ],
          "indexed": false,
          "internalType": "struct GameModel.ZverseItem",
          "name": "item",
          "type": "tuple"
        }
      ],
      "name": "ZverseNFTMinted",
      "type": "event"
    },
    {
      "inputs": [
        {
          "internalType": "address",
          "name": "to",
          "type": "address"
        },
        {
          "internalType": "uint256",
          "name": "tokenId",
          "type": "uint256"
        }
      ],
      "name": "approve",
      "outputs": [],
      "stateMutability": "nonpayable",
      "type": "function"
    },
    {
      "inputs": [
        {
          "internalType": "address",
          "name": "owner",
          "type": "address"
        }
      ],
      "name": "balanceOf",
      "outputs": [
        {
          "internalType": "uint256",
          "name": "",
          "type": "uint256"
        }
      ],
      "stateMutability": "view",
      "type": "function"
    },
    {
      "inputs": [
        {
          "internalType": "uint256",
          "name": "tokenId",
          "type": "uint256"
        }
      ],
      "name": "getApproved",
      "outputs": [
        {
          "internalType": "address",
          "name": "",
          "type": "address"
        }
      ],
      "stateMutability": "view",
      "type": "function"
    },
    {
      "inputs": [],
      "name": "getDefaultCharacters",
      "outputs": [
        {
          "components": [
            {
              "internalType": "uint256",
              "name": "cryptoFaceIndex",
              "type": "uint256"
            },
            {
              "internalType": "string",
              "name": "name",
              "type": "string"
            },
            {
              "internalType": "string",
              "name": "description",
              "type": "string"
            },
            {
              "internalType": "string",
              "name": "imageURI",
              "type": "string"
            },
            {
              "internalType": "uint256",
              "name": "legendaryHypeLevel",
              "type": "uint256"
            },
            {
              "internalType": "uint256",
              "name": "hypeLevel",
              "type": "uint256"
            },
            {
              "internalType": "uint256",
              "name": "hypeValue",
              "type": "uint256"
            }
          ],
          "internalType": "struct GameModel.ZverseItem[]",
          "name": "",
          "type": "tuple[]"
        }
      ],
      "stateMutability": "view",
      "type": "function"
    },
    {
      "inputs": [],
      "name": "getOwnedZverseItems",
      "outputs": [
        {
          "components": [
            {
              "internalType": "uint256",
              "name": "cryptoFaceIndex",
              "type": "uint256"
            },
            {
              "internalType": "string",
              "name": "name",
              "type": "string"
            },
            {
              "internalType": "string",
              "name": "description",
              "type": "string"
            },
            {
              "internalType": "string",
              "name": "imageURI",
              "type": "string"
            },
            {
              "internalType": "uint256",
              "name": "legendaryHypeLevel",
              "type": "uint256"
            },
            {
              "internalType": "uint256",
              "name": "hypeLevel",
              "type": "uint256"
            },
            {
              "internalType": "uint256",
              "name": "hypeValue",
              "type": "uint256"
            }
          ],
          "internalType": "struct GameModel.ZverseItem[]",
          "name": "",
          "type": "tuple[]"
        }
      ],
      "stateMutability": "view",
      "type": "function"
    },
    {
      "inputs": [],
      "name": "getTotalNFTMinted",
      "outputs": [
        {
          "internalType": "uint256",
          "name": "",
          "type": "uint256"
        }
      ],
      "stateMutability": "view",
      "type": "function"
    },
    {
      "inputs": [
        {
          "internalType": "address",
          "name": "owner",
          "type": "address"
        },
        {
          "internalType": "address",
          "name": "operator",
          "type": "address"
        }
      ],
      "name": "isApprovedForAll",
      "outputs": [
        {
          "internalType": "bool",
          "name": "",
          "type": "bool"
        }
      ],
      "stateMutability": "view",
      "type": "function"
    },
    {
      "inputs": [
        {
          "internalType": "uint256",
          "name": "itemIndex",
          "type": "uint256"
        }
      ],
      "name": "mintCharacterNFT",
      "outputs": [],
      "stateMutability": "nonpayable",
      "type": "function"
    },
    {
      "inputs": [],
      "name": "name",
      "outputs": [
        {
          "internalType": "string",
          "name": "",
          "type": "string"
        }
      ],
      "stateMutability": "view",
      "type": "function"
    },
    {
      "inputs": [
        {
          "internalType": "uint256",
          "name": "tokenId",
          "type": "uint256"
        }
      ],
      "name": "ownerOf",
      "outputs": [
        {
          "internalType": "address",
          "name": "",
          "type": "address"
        }
      ],
      "stateMutability": "view",
      "type": "function"
    },
    {
      "inputs": [
        {
          "internalType": "address",
          "name": "from",
          "type": "address"
        },
        {
          "internalType": "address",
          "name": "to",
          "type": "address"
        },
        {
          "internalType": "uint256",
          "name": "tokenId",
          "type": "uint256"
        }
      ],
      "name": "safeTransferFrom",
      "outputs": [],
      "stateMutability": "nonpayable",
      "type": "function"
    },
    {
      "inputs": [
        {
          "internalType": "address",
          "name": "from",
          "type": "address"
        },
        {
          "internalType": "address",
          "name": "to",
          "type": "address"
        },
        {
          "internalType": "uint256",
          "name": "tokenId",
          "type": "uint256"
        },
        {
          "internalType": "bytes",
          "name": "data",
          "type": "bytes"
        }
      ],
      "name": "safeTransferFrom",
      "outputs": [],
      "stateMutability": "nonpayable",
      "type": "function"
    },
    {
      "inputs": [
        {
          "internalType": "address",
          "name": "operator",
          "type": "address"
        },
        {
          "internalType": "bool",
          "name": "approved",
          "type": "bool"
        }
      ],
      "name": "setApprovalForAll",
      "outputs": [],
      "stateMutability": "nonpayable",
      "type": "function"
    },
    {
      "inputs": [
        {
          "internalType": "bytes4",
          "name": "interfaceId",
          "type": "bytes4"
        }
      ],
      "name": "supportsInterface",
      "outputs": [
        {
          "internalType": "bool",
          "name": "",
          "type": "bool"
        }
      ],
      "stateMutability": "view",
      "type": "function"
    },
    {
      "inputs": [],
      "name": "symbol",
      "outputs": [
        {
          "internalType": "string",
          "name": "",
          "type": "string"
        }
      ],
      "stateMutability": "view",
      "type": "function"
    },
    {
      "inputs": [
        {
          "internalType": "uint256",
          "name": "tokenId",
          "type": "uint256"
        }
      ],
      "name": "tokenURI",
      "outputs": [
        {
          "internalType": "string",
          "name": "",
          "type": "string"
        }
      ],
      "stateMutability": "view",
      "type": "function"
    },
    {
      "inputs": [
        {
          "internalType": "address",
          "name": "from",
          "type": "address"
        },
        {
          "internalType": "address",
          "name": "to",
          "type": "address"
        },
        {
          "internalType": "uint256",
          "name": "tokenId",
          "type": "uint256"
        }
      ],
      "name": "transferFrom",
      "outputs": [],
      "stateMutability": "nonpayable",
      "type": "function"
    }
  ],
  "bytecode": "0x608060405260405162003ca338038062003ca383398181016040528101906200002991906200073f565b6040518060400160405280600681526020017f5a766572736500000000000000000000000000000000000000000000000000008152506040518060400160405280600381526020017f5a565300000000000000000000000000000000000000000000000000000000008152508160009080519060200190620000ad92919062000549565b508060019080519060200190620000c692919062000549565b505050620001146040518060400160405280601c81526020017f4d6978566572736547616d6520696e697469616c697a696e672e2e2e00000000815250620003d460201b6200114d1760201c565b83600760006101000a81548173ffffffffffffffffffffffffffffffffffffffff021916908373ffffffffffffffffffffffffffffffffffffffff16021790555060005b83518110156200037e5760006040518060e00160405280838152602001868481518110620001af577f4e487b7100000000000000000000000000000000000000000000000000000000600052603260045260246000fd5b60200260200101518152602001858481518110620001f6577f4e487b7100000000000000000000000000000000000000000000000000000000600052603260045260246000fd5b602002602001015181526020018484815181106200023d577f4e487b7100000000000000000000000000000000000000000000000000000000600052603260045260246000fd5b602002602001015181526020016000815260200160018152602001600a81525090506006819080600181540180825580915050600190039060005260206000209060070201600090919091909150600082015181600001556020820151816001019080519060200190620002b392919062000549565b506040820151816002019080519060200190620002d292919062000549565b506060820151816003019080519060200190620002f192919062000549565b506080820151816004015560a0820151816005015560c082015181600601555050620003676040518060400160405280601f81526020017f446f6e6520696e697469616c697a696e6720257320772f2c20696d6720257300815250826020015183606001516200047760201b620011e61760201c565b508080620003759062000a4b565b91505062000158565b50620003ca6040518060400160405280601381526020017f47616d6520696e697469616c697a6564203a2900000000000000000000000000815250620003d460201b6200114d1760201c565b5050505062000b51565b6200047481604051602401620003eb919062000837565b6040516020818303038152906040527f41304fac000000000000000000000000000000000000000000000000000000007bffffffffffffffffffffffffffffffffffffffffffffffffffffffff19166020820180517bffffffffffffffffffffffffffffffffffffffffffffffffffffffff83818316178352505050506200052060201b60201c565b50565b6200051b83838360405160240162000492939291906200085b565b6040516020818303038152906040527f2ced7cef000000000000000000000000000000000000000000000000000000007bffffffffffffffffffffffffffffffffffffffffffffffffffffffff19166020820180517bffffffffffffffffffffffffffffffffffffffffffffffffffffffff83818316178352505050506200052060201b60201c565b505050565b60008151905060006a636f6e736f6c652e6c6f679050602083016000808483855afa5050505050565b8280546200055790620009df565b90600052602060002090601f0160209004810192826200057b5760008555620005c7565b82601f106200059657805160ff1916838001178555620005c7565b82800160010185558215620005c7579182015b82811115620005c6578251825591602001919060010190620005a9565b5b509050620005d69190620005da565b5090565b5b80821115620005f5576000816000905550600101620005db565b5090565b6000620006106200060a84620008d6565b620008ad565b905080838252602082019050828560208602820111156200063057600080fd5b60005b858110156200067f57815167ffffffffffffffff8111156200065457600080fd5b80860162000663898262000712565b8552602085019450602084019350505060018101905062000633565b5050509392505050565b6000620006a06200069a8462000905565b620008ad565b905082815260208101848484011115620006b957600080fd5b620006c6848285620009a9565b509392505050565b600082601f830112620006e057600080fd5b8151620006f2848260208601620005f9565b91505092915050565b6000815190506200070c8162000b37565b92915050565b600082601f8301126200072457600080fd5b81516200073684826020860162000689565b91505092915050565b600080600080608085870312156200075657600080fd5b60006200076687828801620006fb565b945050602085015167ffffffffffffffff8111156200078457600080fd5b6200079287828801620006ce565b935050604085015167ffffffffffffffff811115620007b057600080fd5b620007be87828801620006ce565b925050606085015167ffffffffffffffff811115620007dc57600080fd5b620007ea87828801620006ce565b91505092959194509250565b600062000803826200093b565b6200080f818562000946565b935062000821818560208601620009a9565b6200082c8162000b26565b840191505092915050565b60006020820190508181036000830152620008538184620007f6565b905092915050565b60006060820190508181036000830152620008778186620007f6565b905081810360208301526200088d8185620007f6565b90508181036040830152620008a38184620007f6565b9050949350505050565b6000620008b9620008cc565b9050620008c7828262000a15565b919050565b6000604051905090565b600067ffffffffffffffff821115620008f457620008f362000af7565b5b602082029050602081019050919050565b600067ffffffffffffffff82111562000923576200092262000af7565b5b6200092e8262000b26565b9050602081019050919050565b600081519050919050565b600082825260208201905092915050565b600062000964826200097f565b9050919050565b6000620009788262000957565b9050919050565b600073ffffffffffffffffffffffffffffffffffffffff82169050919050565b6000819050919050565b60005b83811015620009c9578082015181840152602081019050620009ac565b83811115620009d9576000848401525b50505050565b60006002820490506001821680620009f857607f821691505b6020821081141562000a0f5762000a0e62000ac8565b5b50919050565b62000a208262000b26565b810181811067ffffffffffffffff8211171562000a425762000a4162000af7565b5b80604052505050565b600062000a58826200099f565b91507fffffffffffffffffffffffffffffffffffffffffffffffffffffffffffffffff82141562000a8e5762000a8d62000a99565b5b600182019050919050565b7f4e487b7100000000000000000000000000000000000000000000000000000000600052601160045260246000fd5b7f4e487b7100000000000000000000000000000000000000000000000000000000600052602260045260246000fd5b7f4e487b7100000000000000000000000000000000000000000000000000000000600052604160045260246000fd5b6000601f19601f8301169050919050565b62000b42816200096b565b811462000b4e57600080fd5b50565b6131428062000b616000396000f3fe608060405234801561001057600080fd5b506004361061010b5760003560e01c806370a08231116100a2578063a22cb46511610071578063a22cb465146102ba578063b88d4fde146102d6578063c87b56dd146102f2578063e985e9c514610322578063f8b81ef7146103525761010b565b806370a082311461023057806374bce80a1461026057806395d89b411461027e578063986f5be21461029c5761010b565b806323b872dd116100de57806323b872dd146101aa578063282fa2bc146101c657806342842e0e146101e45780636352211e146102005761010b565b806301ffc9a71461011057806306fdde0314610140578063081812fc1461015e578063095ea7b31461018e575b600080fd5b61012a600480360381019061012591906121bb565b61036e565b60405161013791906127ab565b60405180910390f35b610148610450565b60405161015591906127c6565b60405180910390f35b6101786004803603810190610173919061220d565b6104e2565b60405161018591906126d6565b60405180910390f35b6101a860048036038101906101a3919061213e565b610528565b005b6101c460048036038101906101bf9190612038565b610640565b005b6101ce6106a0565b6040516101db9190612789565b60405180910390f35b6101fe60048036038101906101f99190612038565b61075d565b005b61021a6004803603810190610215919061220d565b61077d565b60405161022791906126d6565b60405180910390f35b61024a60048036038101906102459190611fd3565b61082f565b6040516102579190612996565b60405180910390f35b6102686108e7565b6040516102759190612789565b60405180910390f35b610286610b24565b60405161029391906127c6565b60405180910390f35b6102a4610bb6565b6040516102b19190612996565b60405180910390f35b6102d460048036038101906102cf9190612102565b610c5d565b005b6102f060048036038101906102eb9190612087565b610c73565b005b61030c6004803603810190610307919061220d565b610cd5565b60405161031991906127c6565b60405180910390f35b61033c60048036038101906103379190611ffc565b610d3d565b60405161034991906127ab565b60405180910390f35b61036c6004803603810190610367919061220d565b610dd1565b005b60007f80ac58cd000000000000000000000000000000000000000000000000000000007bffffffffffffffffffffffffffffffffffffffffffffffffffffffff1916827bffffffffffffffffffffffffffffffffffffffffffffffffffffffff1916148061043957507f5b5e139f000000000000000000000000000000000000000000000000000000007bffffffffffffffffffffffffffffffffffffffffffffffffffffffff1916827bffffffffffffffffffffffffffffffffffffffffffffffffffffffff1916145b80610449575061044882611285565b5b9050919050565b60606000805461045f90612c62565b80601f016020809104026020016040519081016040528092919081815260200182805461048b90612c62565b80156104d85780601f106104ad576101008083540402835291602001916104d8565b820191906000526020600020905b8154815290600101906020018083116104bb57829003601f168201915b5050505050905090565b60006104ed826112ef565b6004600083815260200190815260200160002060009054906101000a900473ffffffffffffffffffffffffffffffffffffffff169050919050565b60006105338261077d565b90508073ffffffffffffffffffffffffffffffffffffffff168373ffffffffffffffffffffffffffffffffffffffff1614156105a4576040517f08c379a000000000000000000000000000000000000000000000000000000000815260040161059b90612934565b60405180910390fd5b8073ffffffffffffffffffffffffffffffffffffffff166105c361133a565b73ffffffffffffffffffffffffffffffffffffffff1614806105f257506105f1816105ec61133a565b610d3d565b5b610631576040517f08c379a0000000000000000000000000000000000000000000000000000000008152600401610628906128f4565b60405180910390fd5b61063b8383611342565b505050565b61065161064b61133a565b826113fb565b610690576040517f08c379a000000000000000000000000000000000000000000000000000000000815260040161068790612954565b60405180910390fd5b61069b838383611490565b505050565b60606000339050600760009054906101000a900473ffffffffffffffffffffffffffffffffffffffff1673ffffffffffffffffffffffffffffffffffffffff16638c017572826040518263ffffffff1660e01b815260040161070291906126d6565b60006040518083038186803b15801561071a57600080fd5b505afa15801561072e573d6000803e3d6000fd5b505050506040513d6000823e3d601f19601f82011682018060405250810190610757919061217a565b91505090565b61077883838360405180602001604052806000815250610c73565b505050565b6000806002600084815260200190815260200160002060009054906101000a900473ffffffffffffffffffffffffffffffffffffffff169050600073ffffffffffffffffffffffffffffffffffffffff168173ffffffffffffffffffffffffffffffffffffffff161415610826576040517f08c379a000000000000000000000000000000000000000000000000000000000815260040161081d90612914565b60405180910390fd5b80915050919050565b60008073ffffffffffffffffffffffffffffffffffffffff168273ffffffffffffffffffffffffffffffffffffffff1614156108a0576040517f08c379a0000000000000000000000000000000000000000000000000000000008152600401610897906128d4565b60405180910390fd5b600360008373ffffffffffffffffffffffffffffffffffffffff1673ffffffffffffffffffffffffffffffffffffffff168152602001908152602001600020549050919050565b60606006805480602002602001604051908101604052809291908181526020016000905b82821015610b1b57838290600052602060002090600702016040518060e00160405290816000820154815260200160018201805461094890612c62565b80601f016020809104026020016040519081016040528092919081815260200182805461097490612c62565b80156109c15780601f10610996576101008083540402835291602001916109c1565b820191906000526020600020905b8154815290600101906020018083116109a457829003601f168201915b505050505081526020016002820180546109da90612c62565b80601f0160208091040260200160405190810160405280929190818152602001828054610a0690612c62565b8015610a535780601f10610a2857610100808354040283529160200191610a53565b820191906000526020600020905b815481529060010190602001808311610a3657829003601f168201915b50505050508152602001600382018054610a6c90612c62565b80601f0160208091040260200160405190810160405280929190818152602001828054610a9890612c62565b8015610ae55780601f10610aba57610100808354040283529160200191610ae5565b820191906000526020600020905b815481529060010190602001808311610ac857829003601f168201915b5050505050815260200160048201548152602001600582015481526020016006820154815250508152602001906001019061090b565b50505050905090565b606060018054610b3390612c62565b80601f0160208091040260200160405190810160405280929190818152602001828054610b5f90612c62565b8015610bac5780601f10610b8157610100808354040283529160200191610bac565b820191906000526020600020905b815481529060010190602001808311610b8f57829003601f168201915b5050505050905090565b6000600760009054906101000a900473ffffffffffffffffffffffffffffffffffffffff1673ffffffffffffffffffffffffffffffffffffffff1663459dcbc36040518163ffffffff1660e01b815260040160206040518083038186803b158015610c2057600080fd5b505afa158015610c34573d6000803e3d6000fd5b505050506040513d601f19601f82011682018060405250810190610c589190612236565b905090565b610c6f610c6861133a565b83836116f7565b5050565b610c84610c7e61133a565b836113fb565b610cc3576040517f08c379a0000000000000000000000000000000000000000000000000000000008152600401610cba90612954565b60405180910390fd5b610ccf84848484611864565b50505050565b6060610ce0826112ef565b6000610cea6118c0565b90506000815111610d0a5760405180602001604052806000815250610d35565b80610d14846118d7565b604051602001610d259291906126b2565b6040516020818303038152906040525b915050919050565b6000600560008473ffffffffffffffffffffffffffffffffffffffff1673ffffffffffffffffffffffffffffffffffffffff16815260200190815260200160002060008373ffffffffffffffffffffffffffffffffffffffff1673ffffffffffffffffffffffffffffffffffffffff16815260200190815260200160002060009054906101000a900460ff16905092915050565b60008110158015610de6575060068054905081105b610e25576040517f08c379a0000000000000000000000000000000000000000000000000000000008152600401610e1c90612834565b60405180910390fd5b600060068281548110610e61577f4e487b7100000000000000000000000000000000000000000000000000000000600052603260045260246000fd5b90600052602060002090600702016040518060e001604052908160008201548152602001600182018054610e9490612c62565b80601f0160208091040260200160405190810160405280929190818152602001828054610ec090612c62565b8015610f0d5780601f10610ee257610100808354040283529160200191610f0d565b820191906000526020600020905b815481529060010190602001808311610ef057829003601f168201915b50505050508152602001600282018054610f2690612c62565b80601f0160208091040260200160405190810160405280929190818152602001828054610f5290612c62565b8015610f9f5780601f10610f7457610100808354040283529160200191610f9f565b820191906000526020600020905b815481529060010190602001808311610f8257829003601f168201915b50505050508152602001600382018054610fb890612c62565b80601f0160208091040260200160405190810160405280929190818152602001828054610fe490612c62565b80156110315780601f1061100657610100808354040283529160200191611031565b820191906000526020600020905b81548152906001019060200180831161101457829003601f168201915b50505050508152602001600482015481526020016005820154815260200160068201548152505090506000600760009054906101000a900473ffffffffffffffffffffffffffffffffffffffff1673ffffffffffffffffffffffffffffffffffffffff1663bf5e461a836040518263ffffffff1660e01b81526004016110b79190612974565b602060405180830381600087803b1580156110d157600080fd5b505af11580156110e5573d6000803e3d6000fd5b505050506040513d601f19601f820116820180604052508101906111099190612236565b90507fa2bf0e6ff7925e75b04541145ff1ec103c6afe83bab2f01a429379c9c468f65f33828585604051611140949392919061273d565b60405180910390a1505050565b6111e38160405160240161116191906127c6565b6040516020818303038152906040527f41304fac000000000000000000000000000000000000000000000000000000007bffffffffffffffffffffffffffffffffffffffffffffffffffffffff19166020820180517bffffffffffffffffffffffffffffffffffffffffffffffffffffffff8381831617835250505050611a84565b50565b6112808383836040516024016111fe939291906127e8565b6040516020818303038152906040527f2ced7cef000000000000000000000000000000000000000000000000000000007bffffffffffffffffffffffffffffffffffffffffffffffffffffffff19166020820180517bffffffffffffffffffffffffffffffffffffffffffffffffffffffff8381831617835250505050611a84565b505050565b60007f01ffc9a7000000000000000000000000000000000000000000000000000000007bffffffffffffffffffffffffffffffffffffffffffffffffffffffff1916827bffffffffffffffffffffffffffffffffffffffffffffffffffffffff1916149050919050565b6112f881611aad565b611337576040517f08c379a000000000000000000000000000000000000000000000000000000000815260040161132e90612914565b60405180910390fd5b50565b600033905090565b816004600083815260200190815260200160002060006101000a81548173ffffffffffffffffffffffffffffffffffffffff021916908373ffffffffffffffffffffffffffffffffffffffff160217905550808273ffffffffffffffffffffffffffffffffffffffff166113b58361077d565b73ffffffffffffffffffffffffffffffffffffffff167f8c5be1e5ebec7d5bd14f71427d1e84f3dd0314c0f7b2291e5b200ac8c7c3b92560405160405180910390a45050565b6000806114078361077d565b90508073ffffffffffffffffffffffffffffffffffffffff168473ffffffffffffffffffffffffffffffffffffffff16148061144957506114488185610d3d565b5b8061148757508373ffffffffffffffffffffffffffffffffffffffff1661146f846104e2565b73ffffffffffffffffffffffffffffffffffffffff16145b91505092915050565b8273ffffffffffffffffffffffffffffffffffffffff166114b08261077d565b73ffffffffffffffffffffffffffffffffffffffff1614611506576040517f08c379a00000000000000000000000000000000000000000000000000000000081526004016114fd90612874565b60405180910390fd5b600073ffffffffffffffffffffffffffffffffffffffff168273ffffffffffffffffffffffffffffffffffffffff161415611576576040517f08c379a000000000000000000000000000000000000000000000000000000000815260040161156d90612894565b60405180910390fd5b611581838383611b19565b61158c600082611342565b6001600360008573ffffffffffffffffffffffffffffffffffffffff1673ffffffffffffffffffffffffffffffffffffffff16815260200190815260200160002060008282546115dc9190612b78565b925050819055506001600360008473ffffffffffffffffffffffffffffffffffffffff1673ffffffffffffffffffffffffffffffffffffffff16815260200190815260200160002060008282546116339190612af1565b92505081905550816002600083815260200190815260200160002060006101000a81548173ffffffffffffffffffffffffffffffffffffffff021916908373ffffffffffffffffffffffffffffffffffffffff160217905550808273ffffffffffffffffffffffffffffffffffffffff168473ffffffffffffffffffffffffffffffffffffffff167fddf252ad1be2c89b69c2b068fc378daa952ba7f163c4a11628f55a4df523b3ef60405160405180910390a46116f2838383611b1e565b505050565b8173ffffffffffffffffffffffffffffffffffffffff168373ffffffffffffffffffffffffffffffffffffffff161415611766576040517f08c379a000000000000000000000000000000000000000000000000000000000815260040161175d906128b4565b60405180910390fd5b80600560008573ffffffffffffffffffffffffffffffffffffffff1673ffffffffffffffffffffffffffffffffffffffff16815260200190815260200160002060008473ffffffffffffffffffffffffffffffffffffffff1673ffffffffffffffffffffffffffffffffffffffff16815260200190815260200160002060006101000a81548160ff0219169083151502179055508173ffffffffffffffffffffffffffffffffffffffff168373ffffffffffffffffffffffffffffffffffffffff167f17307eab39ab6107e8899845ad3d59bd9653f200f220920489ca2b5937696c318360405161185791906127ab565b60405180910390a3505050565b61186f848484611490565b61187b84848484611b23565b6118ba576040517f08c379a00000000000000000000000000000000000000000000000000000000081526004016118b190612854565b60405180910390fd5b50505050565b606060405180602001604052806000815250905090565b6060600082141561191f576040518060400160405280600181526020017f30000000000000000000000000000000000000000000000000000000000000008152509050611a7f565b600082905060005b6000821461195157808061193a90612cc5565b915050600a8261194a9190612b47565b9150611927565b60008167ffffffffffffffff811115611993577f4e487b7100000000000000000000000000000000000000000000000000000000600052604160045260246000fd5b6040519080825280601f01601f1916602001820160405280156119c55781602001600182028036833780820191505090505b5090505b60008514611a78576001826119de9190612b78565b9150600a856119ed9190612d0e565b60306119f99190612af1565b60f81b818381518110611a35577f4e487b7100000000000000000000000000000000000000000000000000000000600052603260045260246000fd5b60200101907effffffffffffffffffffffffffffffffffffffffffffffffffffffffffffff1916908160001a905350600a85611a719190612b47565b94506119c9565b8093505050505b919050565b60008151905060006a636f6e736f6c652e6c6f679050602083016000808483855afa5050505050565b60008073ffffffffffffffffffffffffffffffffffffffff166002600084815260200190815260200160002060009054906101000a900473ffffffffffffffffffffffffffffffffffffffff1673ffffffffffffffffffffffffffffffffffffffff1614159050919050565b505050565b505050565b6000611b448473ffffffffffffffffffffffffffffffffffffffff16611cba565b15611cad578373ffffffffffffffffffffffffffffffffffffffff1663150b7a02611b6d61133a565b8786866040518563ffffffff1660e01b8152600401611b8f94939291906126f1565b602060405180830381600087803b158015611ba957600080fd5b505af1925050508015611bda57506040513d601f19601f82011682018060405250810190611bd791906121e4565b60015b611c5d573d8060008114611c0a576040519150601f19603f3d011682016040523d82523d6000602084013e611c0f565b606091505b50600081511415611c55576040517f08c379a0000000000000000000000000000000000000000000000000000000008152600401611c4c90612854565b60405180910390fd5b805181602001fd5b63150b7a0260e01b7bffffffffffffffffffffffffffffffffffffffffffffffffffffffff1916817bffffffffffffffffffffffffffffffffffffffffffffffffffffffff191614915050611cb2565b600190505b949350505050565b6000808273ffffffffffffffffffffffffffffffffffffffff163b119050919050565b6000611cf0611ceb846129d6565b6129b1565b90508083825260208201905082856020860282011115611d0f57600080fd5b60005b85811015611d5957815167ffffffffffffffff811115611d3157600080fd5b808601611d3e8982611eb1565b85526020850194506020840193505050600181019050611d12565b5050509392505050565b6000611d76611d7184612a02565b6129b1565b905082815260208101848484011115611d8e57600080fd5b611d99848285612c20565b509392505050565b6000611db4611daf84612a33565b6129b1565b905082815260208101848484011115611dcc57600080fd5b611dd7848285612c2f565b509392505050565b600081359050611dee816130b0565b92915050565b600082601f830112611e0557600080fd5b8151611e15848260208601611cdd565b91505092915050565b600081359050611e2d816130c7565b92915050565b600081359050611e42816130de565b92915050565b600081519050611e57816130de565b92915050565b600082601f830112611e6e57600080fd5b8135611e7e848260208601611d63565b91505092915050565b600082601f830112611e9857600080fd5b8151611ea8848260208601611da1565b91505092915050565b600060e08284031215611ec357600080fd5b611ecd60e06129b1565b90506000611edd84828501611fbe565b600083015250602082015167ffffffffffffffff811115611efd57600080fd5b611f0984828501611e87565b602083015250604082015167ffffffffffffffff811115611f2957600080fd5b611f3584828501611e87565b604083015250606082015167ffffffffffffffff811115611f5557600080fd5b611f6184828501611e87565b6060830152506080611f7584828501611fbe565b60808301525060a0611f8984828501611fbe565b60a08301525060c0611f9d84828501611fbe565b60c08301525092915050565b600081359050611fb8816130f5565b92915050565b600081519050611fcd816130f5565b92915050565b600060208284031215611fe557600080fd5b6000611ff384828501611ddf565b91505092915050565b6000806040838503121561200f57600080fd5b600061201d85828601611ddf565b925050602061202e85828601611ddf565b9150509250929050565b60008060006060848603121561204d57600080fd5b600061205b86828701611ddf565b935050602061206c86828701611ddf565b925050604061207d86828701611fa9565b9150509250925092565b6000806000806080858703121561209d57600080fd5b60006120ab87828801611ddf565b94505060206120bc87828801611ddf565b93505060406120cd87828801611fa9565b925050606085013567ffffffffffffffff8111156120ea57600080fd5b6120f687828801611e5d565b91505092959194509250565b6000806040838503121561211557600080fd5b600061212385828601611ddf565b925050602061213485828601611e1e565b9150509250929050565b6000806040838503121561215157600080fd5b600061215f85828601611ddf565b925050602061217085828601611fa9565b9150509250929050565b60006020828403121561218c57600080fd5b600082015167ffffffffffffffff8111156121a657600080fd5b6121b284828501611df4565b91505092915050565b6000602082840312156121cd57600080fd5b60006121db84828501611e33565b91505092915050565b6000602082840312156121f657600080fd5b600061220484828501611e48565b91505092915050565b60006020828403121561221f57600080fd5b600061222d84828501611fa9565b91505092915050565b60006020828403121561224857600080fd5b600061225684828501611fbe565b91505092915050565b600061226b8383612540565b905092915050565b61227c81612bac565b82525050565b600061228d82612a74565b6122978185612aa2565b9350836020820285016122a985612a64565b8060005b858110156122e557848403895281516122c6858261225f565b94506122d183612a95565b925060208a019950506001810190506122ad565b50829750879550505050505092915050565b61230081612bbe565b82525050565b600061231182612a7f565b61231b8185612ab3565b935061232b818560208601612c2f565b61233481612dfb565b840191505092915050565b600061234a82612a8a565b6123548185612ac4565b9350612364818560208601612c2f565b61236d81612dfb565b840191505092915050565b600061238382612a8a565b61238d8185612ad5565b935061239d818560208601612c2f565b6123a681612dfb565b840191505092915050565b60006123bc82612a8a565b6123c68185612ae6565b93506123d6818560208601612c2f565b80840191505092915050565b60006123ef601e83612ad5565b91506123fa82612e0c565b602082019050919050565b6000612412603283612ad5565b915061241d82612e35565b604082019050919050565b6000612435602583612ad5565b915061244082612e84565b604082019050919050565b6000612458602483612ad5565b915061246382612ed3565b604082019050919050565b600061247b601983612ad5565b915061248682612f22565b602082019050919050565b600061249e602983612ad5565b91506124a982612f4b565b604082019050919050565b60006124c1603e83612ad5565b91506124cc82612f9a565b604082019050919050565b60006124e4601883612ad5565b91506124ef82612fe9565b602082019050919050565b6000612507602183612ad5565b915061251282613012565b604082019050919050565b600061252a602e83612ad5565b915061253582613061565b604082019050919050565b600060e0830160008301516125586000860182612694565b5060208301518482036020860152612570828261233f565b9150506040830151848203604086015261258a828261233f565b915050606083015184820360608601526125a4828261233f565b91505060808301516125b96080860182612694565b5060a08301516125cc60a0860182612694565b5060c08301516125df60c0860182612694565b508091505092915050565b600060e0830160008301516126026000860182612694565b506020830151848203602086015261261a828261233f565b91505060408301518482036040860152612634828261233f565b9150506060830151848203606086015261264e828261233f565b91505060808301516126636080860182612694565b5060a083015161267660a0860182612694565b5060c083015161268960c0860182612694565b508091505092915050565b61269d81612c16565b82525050565b6126ac81612c16565b82525050565b60006126be82856123b1565b91506126ca82846123b1565b91508190509392505050565b60006020820190506126eb6000830184612273565b92915050565b60006080820190506127066000830187612273565b6127136020830186612273565b61272060408301856126a3565b81810360608301526127328184612306565b905095945050505050565b60006080820190506127526000830187612273565b61275f60208301866126a3565b61276c60408301856126a3565b818103606083015261277e81846125ea565b905095945050505050565b600060208201905081810360008301526127a38184612282565b905092915050565b60006020820190506127c060008301846122f7565b92915050565b600060208201905081810360008301526127e08184612378565b905092915050565b600060608201905081810360008301526128028186612378565b905081810360208301526128168185612378565b9050818103604083015261282a8184612378565b9050949350505050565b6000602082019050818103600083015261284d816123e2565b9050919050565b6000602082019050818103600083015261286d81612405565b9050919050565b6000602082019050818103600083015261288d81612428565b9050919050565b600060208201905081810360008301526128ad8161244b565b9050919050565b600060208201905081810360008301526128cd8161246e565b9050919050565b600060208201905081810360008301526128ed81612491565b9050919050565b6000602082019050818103600083015261290d816124b4565b9050919050565b6000602082019050818103600083015261292d816124d7565b9050919050565b6000602082019050818103600083015261294d816124fa565b9050919050565b6000602082019050818103600083015261296d8161251d565b9050919050565b6000602082019050818103600083015261298e81846125ea565b905092915050565b60006020820190506129ab60008301846126a3565b92915050565b60006129bb6129cc565b90506129c78282612c94565b919050565b6000604051905090565b600067ffffffffffffffff8211156129f1576129f0612dcc565b5b602082029050602081019050919050565b600067ffffffffffffffff821115612a1d57612a1c612dcc565b5b612a2682612dfb565b9050602081019050919050565b600067ffffffffffffffff821115612a4e57612a4d612dcc565b5b612a5782612dfb565b9050602081019050919050565b6000819050602082019050919050565b600081519050919050565b600081519050919050565b600081519050919050565b6000602082019050919050565b600082825260208201905092915050565b600082825260208201905092915050565b600082825260208201905092915050565b600082825260208201905092915050565b600081905092915050565b6000612afc82612c16565b9150612b0783612c16565b9250827fffffffffffffffffffffffffffffffffffffffffffffffffffffffffffffffff03821115612b3c57612b3b612d3f565b5b828201905092915050565b6000612b5282612c16565b9150612b5d83612c16565b925082612b6d57612b6c612d6e565b5b828204905092915050565b6000612b8382612c16565b9150612b8e83612c16565b925082821015612ba157612ba0612d3f565b5b828203905092915050565b6000612bb782612bf6565b9050919050565b60008115159050919050565b60007fffffffff0000000000000000000000000000000000000000000000000000000082169050919050565b600073ffffffffffffffffffffffffffffffffffffffff82169050919050565b6000819050919050565b82818337600083830152505050565b60005b83811015612c4d578082015181840152602081019050612c32565b83811115612c5c576000848401525b50505050565b60006002820490506001821680612c7a57607f821691505b60208210811415612c8e57612c8d612d9d565b5b50919050565b612c9d82612dfb565b810181811067ffffffffffffffff82111715612cbc57612cbb612dcc565b5b80604052505050565b6000612cd082612c16565b91507fffffffffffffffffffffffffffffffffffffffffffffffffffffffffffffffff821415612d0357612d02612d3f565b5b600182019050919050565b6000612d1982612c16565b9150612d2483612c16565b925082612d3457612d33612d6e565b5b828206905092915050565b7f4e487b7100000000000000000000000000000000000000000000000000000000600052601160045260246000fd5b7f4e487b7100000000000000000000000000000000000000000000000000000000600052601260045260246000fd5b7f4e487b7100000000000000000000000000000000000000000000000000000000600052602260045260246000fd5b7f4e487b7100000000000000000000000000000000000000000000000000000000600052604160045260246000fd5b6000601f19601f8301169050919050565b7f43686172616374657220696e646578206f7574206f6620626f756e64732e0000600082015250565b7f4552433732313a207472616e7366657220746f206e6f6e20455243373231526560008201527f63656976657220696d706c656d656e7465720000000000000000000000000000602082015250565b7f4552433732313a207472616e736665722066726f6d20696e636f72726563742060008201527f6f776e6572000000000000000000000000000000000000000000000000000000602082015250565b7f4552433732313a207472616e7366657220746f20746865207a65726f2061646460008201527f7265737300000000000000000000000000000000000000000000000000000000602082015250565b7f4552433732313a20617070726f766520746f2063616c6c657200000000000000600082015250565b7f4552433732313a2061646472657373207a65726f206973206e6f74206120766160008201527f6c6964206f776e65720000000000000000000000000000000000000000000000602082015250565b7f4552433732313a20617070726f76652063616c6c6572206973206e6f7420746f60008201527f6b656e206f776e6572206e6f7220617070726f76656420666f7220616c6c0000602082015250565b7f4552433732313a20696e76616c696420746f6b656e2049440000000000000000600082015250565b7f4552433732313a20617070726f76616c20746f2063757272656e74206f776e6560008201527f7200000000000000000000000000000000000000000000000000000000000000602082015250565b7f4552433732313a2063616c6c6572206973206e6f7420746f6b656e206f776e6560008201527f72206e6f7220617070726f766564000000000000000000000000000000000000602082015250565b6130b981612bac565b81146130c457600080fd5b50565b6130d081612bbe565b81146130db57600080fd5b50565b6130e781612bca565b81146130f257600080fd5b50565b6130fe81612c16565b811461310957600080fd5b5056fea2646970667358221220b9a7943150004f12b6ef5b01d4094a44f19f9d23e113bc55aed02f6c05d7ce4d64736f6c63430008040033",
  "linkReferences": {},
  "deployedLinkReferences": {}
}